{
  "_format": "hh-sol-artifact-1",
  "contractName": "NewsPlatform",
  "sourceName": "contracts/NewsPlatform.sol",
  "abi": [
    {
      "inputs": [],
      "stateMutability": "nonpayable",
      "type": "constructor"
    },
    {
      "inputs": [],
      "name": "AccessControlBadConfirmation",
      "type": "error"
    },
    {
      "inputs": [
        {
          "internalType": "address",
          "name": "account",
          "type": "address"
        },
        {
          "internalType": "bytes32",
          "name": "neededRole",
          "type": "bytes32"
        }
      ],
      "name": "AccessControlUnauthorizedAccount",
      "type": "error"
    },
    {
      "anonymous": false,
      "inputs": [
        {
          "indexed": true,
          "internalType": "bytes32",
          "name": "role",
          "type": "bytes32"
        },
        {
          "indexed": true,
          "internalType": "bytes32",
          "name": "previousAdminRole",
          "type": "bytes32"
        },
        {
          "indexed": true,
          "internalType": "bytes32",
          "name": "newAdminRole",
          "type": "bytes32"
        }
      ],
      "name": "RoleAdminChanged",
      "type": "event"
    },
    {
      "anonymous": false,
      "inputs": [
        {
          "indexed": true,
          "internalType": "bytes32",
          "name": "role",
          "type": "bytes32"
        },
        {
          "indexed": true,
          "internalType": "address",
          "name": "account",
          "type": "address"
        },
        {
          "indexed": true,
          "internalType": "address",
          "name": "sender",
          "type": "address"
        }
      ],
      "name": "RoleGranted",
      "type": "event"
    },
    {
      "anonymous": false,
      "inputs": [
        {
          "indexed": true,
          "internalType": "bytes32",
          "name": "role",
          "type": "bytes32"
        },
        {
          "indexed": true,
          "internalType": "address",
          "name": "account",
          "type": "address"
        },
        {
          "indexed": true,
          "internalType": "address",
          "name": "sender",
          "type": "address"
        }
      ],
      "name": "RoleRevoked",
      "type": "event"
    },
    {
      "inputs": [],
      "name": "DEFAULT_ADMIN_ROLE",
      "outputs": [
        {
          "internalType": "bytes32",
          "name": "",
          "type": "bytes32"
        }
      ],
      "stateMutability": "view",
      "type": "function"
    },
    {
      "inputs": [],
      "name": "PUBLISHER_ROLE",
      "outputs": [
        {
          "internalType": "bytes32",
          "name": "",
          "type": "bytes32"
        }
      ],
      "stateMutability": "view",
      "type": "function"
    },
    {
      "inputs": [
        {
          "internalType": "uint256",
          "name": "",
          "type": "uint256"
        }
      ],
      "name": "articleVersionCounts",
      "outputs": [
        {
          "internalType": "uint256",
          "name": "",
          "type": "uint256"
        }
      ],
      "stateMutability": "view",
      "type": "function"
    },
    {
      "inputs": [
        {
          "internalType": "uint256",
          "name": "",
          "type": "uint256"
        }
      ],
      "name": "articleVersionless",
      "outputs": [
        {
          "internalType": "uint256",
          "name": "id",
          "type": "uint256"
        },
        {
          "internalType": "string",
          "name": "title",
          "type": "string"
        },
        {
          "internalType": "string",
          "name": "content",
          "type": "string"
        },
        {
          "internalType": "uint256",
          "name": "timestamp",
          "type": "uint256"
        },
        {
          "internalType": "address",
          "name": "publisherID",
          "type": "address"
        },
        {
          "internalType": "string",
          "name": "articleHash",
          "type": "string"
        }
      ],
      "stateMutability": "view",
      "type": "function"
    },
    {
      "inputs": [
        {
          "internalType": "uint256",
          "name": "",
          "type": "uint256"
        }
      ],
      "name": "articles",
      "outputs": [
        {
          "internalType": "string",
          "name": "title",
          "type": "string"
        },
        {
          "internalType": "string",
          "name": "content",
          "type": "string"
        },
        {
          "internalType": "uint256",
          "name": "timestamp",
          "type": "uint256"
        },
        {
          "internalType": "address",
          "name": "publisherID",
          "type": "address"
        },
        {
          "internalType": "string",
          "name": "articleHash",
          "type": "string"
        }
      ],
      "stateMutability": "view",
      "type": "function"
    },
    {
      "inputs": [
        {
          "internalType": "bytes32",
          "name": "_bytes32",
          "type": "bytes32"
        }
      ],
      "name": "bytes32ToString",
      "outputs": [
        {
          "internalType": "string",
          "name": "",
          "type": "string"
        }
      ],
      "stateMutability": "pure",
      "type": "function"
    },
    {
      "inputs": [],
      "name": "getAllArticleIds",
      "outputs": [
        {
          "internalType": "uint256[]",
          "name": "",
          "type": "uint256[]"
        }
      ],
      "stateMutability": "view",
      "type": "function"
    },
    {
      "inputs": [],
      "name": "getAllPublishers",
      "outputs": [
        {
          "components": [
            {
              "internalType": "address",
              "name": "publisherID",
              "type": "address"
            },
            {
              "internalType": "uint256",
              "name": "registrationTimestamp",
              "type": "uint256"
            },
            {
              "internalType": "int256",
              "name": "reputationScore",
              "type": "int256"
            },
            {
              "internalType": "bool",
              "name": "isRegistered",
              "type": "bool"
            }
          ],
          "internalType": "struct NewsPlatform.Publisher[]",
          "name": "",
          "type": "tuple[]"
        }
      ],
      "stateMutability": "view",
      "type": "function"
    },
    {
      "inputs": [
        {
          "internalType": "uint256",
          "name": "articleId",
          "type": "uint256"
        }
      ],
      "name": "getArticle",
      "outputs": [
        {
          "components": [
            {
              "internalType": "uint256",
              "name": "id",
              "type": "uint256"
            },
            {
              "internalType": "string",
              "name": "title",
              "type": "string"
            },
            {
              "internalType": "string",
              "name": "content",
              "type": "string"
            },
            {
              "internalType": "uint256",
              "name": "timestamp",
              "type": "uint256"
            },
            {
              "internalType": "address",
              "name": "publisherID",
              "type": "address"
            },
            {
              "internalType": "string",
              "name": "articleHash",
              "type": "string"
            }
          ],
          "internalType": "struct NewsPlatform.ArticleWithID",
          "name": "",
          "type": "tuple"
        }
      ],
      "stateMutability": "view",
      "type": "function"
    },
    {
      "inputs": [
        {
          "internalType": "uint256",
          "name": "articleId",
          "type": "uint256"
        }
      ],
      "name": "getArticleHistory",
      "outputs": [
        {
          "components": [
            {
              "internalType": "uint256",
              "name": "versionNumber",
              "type": "uint256"
            },
            {
              "internalType": "string",
              "name": "articleHash",
              "type": "string"
            },
            {
              "internalType": "address",
              "name": "editorID",
              "type": "address"
            },
            {
              "internalType": "uint256",
              "name": "editTimestamp",
              "type": "uint256"
            }
          ],
          "internalType": "struct NewsPlatform.ArticleVersion[]",
          "name": "",
          "type": "tuple[]"
        }
      ],
      "stateMutability": "view",
      "type": "function"
    },
    {
      "inputs": [
        {
          "internalType": "string",
          "name": "name",
          "type": "string"
        }
      ],
      "name": "getArticlesByName",
      "outputs": [
        {
          "components": [
            {
              "internalType": "uint256",
              "name": "id",
              "type": "uint256"
            },
            {
              "internalType": "string",
              "name": "title",
              "type": "string"
            },
            {
              "internalType": "string",
              "name": "content",
              "type": "string"
            },
            {
              "internalType": "uint256",
              "name": "timestamp",
              "type": "uint256"
            },
            {
              "internalType": "address",
              "name": "publisherID",
              "type": "address"
            },
            {
              "internalType": "string",
              "name": "articleHash",
              "type": "string"
            }
          ],
          "internalType": "struct NewsPlatform.ArticlewithOutVersion[]",
          "name": "",
          "type": "tuple[]"
        }
      ],
      "stateMutability": "view",
      "type": "function"
    },
    {
      "inputs": [
        {
          "internalType": "address",
          "name": "publisherAddress",
          "type": "address"
        }
      ],
      "name": "getArticlesByPublisher",
      "outputs": [
        {
          "components": [
            {
              "internalType": "uint256",
              "name": "id",
              "type": "uint256"
            },
            {
              "internalType": "string",
              "name": "title",
              "type": "string"
            },
            {
              "internalType": "string",
              "name": "content",
              "type": "string"
            },
            {
              "internalType": "uint256",
              "name": "timestamp",
              "type": "uint256"
            },
            {
              "internalType": "address",
              "name": "publisherID",
              "type": "address"
            },
            {
              "internalType": "string",
              "name": "articleHash",
              "type": "string"
            }
          ],
          "internalType": "struct NewsPlatform.ArticlewithOutVersion[]",
          "name": "",
          "type": "tuple[]"
        }
      ],
      "stateMutability": "view",
      "type": "function"
    },
    {
      "inputs": [
        {
          "internalType": "bytes32",
          "name": "role",
          "type": "bytes32"
        }
      ],
      "name": "getRoleAdmin",
      "outputs": [
        {
          "internalType": "bytes32",
          "name": "",
          "type": "bytes32"
        }
      ],
      "stateMutability": "view",
      "type": "function"
    },
    {
      "inputs": [
        {
          "internalType": "address",
          "name": "newAdmin",
          "type": "address"
        }
      ],
      "name": "grantAdminRole",
      "outputs": [],
      "stateMutability": "nonpayable",
      "type": "function"
    },
    {
      "inputs": [
        {
          "internalType": "bytes32",
          "name": "role",
          "type": "bytes32"
        },
        {
          "internalType": "address",
          "name": "account",
          "type": "address"
        }
      ],
      "name": "grantRole",
      "outputs": [],
      "stateMutability": "nonpayable",
      "type": "function"
    },
    {
      "inputs": [
        {
          "internalType": "bytes32",
          "name": "role",
          "type": "bytes32"
        },
        {
          "internalType": "address",
          "name": "account",
          "type": "address"
        }
      ],
      "name": "hasRole",
      "outputs": [
        {
          "internalType": "bool",
          "name": "",
          "type": "bool"
        }
      ],
      "stateMutability": "view",
      "type": "function"
    },
    {
      "inputs": [
        {
          "internalType": "address",
          "name": "user",
          "type": "address"
        }
      ],
      "name": "isAdmin",
      "outputs": [
        {
          "internalType": "bool",
          "name": "",
          "type": "bool"
        }
      ],
      "stateMutability": "view",
      "type": "function"
    },
    {
      "inputs": [
        {
          "internalType": "address",
          "name": "user",
          "type": "address"
        }
      ],
      "name": "isPublisher",
      "outputs": [
        {
          "internalType": "bool",
          "name": "",
          "type": "bool"
        }
      ],
      "stateMutability": "view",
      "type": "function"
    },
    {
      "inputs": [
        {
          "internalType": "string",
          "name": "",
          "type": "string"
        }
      ],
      "name": "nameToPublisherAddress",
      "outputs": [
        {
          "internalType": "address",
          "name": "",
          "type": "address"
        }
      ],
      "stateMutability": "view",
      "type": "function"
    },
    {
      "inputs": [
        {
          "internalType": "uint256",
          "name": "",
          "type": "uint256"
        }
      ],
      "name": "publisherAddresses",
      "outputs": [
        {
          "internalType": "address",
          "name": "",
          "type": "address"
        }
      ],
      "stateMutability": "view",
      "type": "function"
    },
    {
      "inputs": [
        {
          "internalType": "address",
          "name": "",
          "type": "address"
        },
        {
          "internalType": "uint256",
          "name": "",
          "type": "uint256"
        }
      ],
      "name": "publisherArticles",
      "outputs": [
        {
          "internalType": "uint256",
          "name": "",
          "type": "uint256"
        }
      ],
      "stateMutability": "view",
      "type": "function"
    },
    {
      "inputs": [
        {
          "internalType": "address",
          "name": "",
          "type": "address"
        }
      ],
      "name": "publisherNames",
      "outputs": [
        {
          "internalType": "string",
          "name": "",
          "type": "string"
        }
      ],
      "stateMutability": "view",
      "type": "function"
    },
    {
      "inputs": [
        {
          "internalType": "address",
          "name": "",
          "type": "address"
        }
      ],
      "name": "publishers",
      "outputs": [
        {
          "internalType": "address",
          "name": "publisherID",
          "type": "address"
        },
        {
          "internalType": "uint256",
          "name": "registrationTimestamp",
          "type": "uint256"
        },
        {
          "internalType": "int256",
          "name": "reputationScore",
          "type": "int256"
        },
        {
          "internalType": "bool",
          "name": "isRegistered",
          "type": "bool"
        }
      ],
      "stateMutability": "view",
      "type": "function"
    },
    {
      "inputs": [
        {
          "internalType": "address",
          "name": "",
          "type": "address"
        }
      ],
      "name": "readers",
      "outputs": [
        {
          "internalType": "address",
          "name": "readerID",
          "type": "address"
        }
      ],
      "stateMutability": "view",
      "type": "function"
    },
    {
      "inputs": [
        {
          "internalType": "address",
          "name": "publisherAddress",
          "type": "address"
        },
        {
          "internalType": "string",
          "name": "name",
          "type": "string"
        }
      ],
      "name": "registerPublisher",
      "outputs": [],
      "stateMutability": "nonpayable",
      "type": "function"
    },
    {
      "inputs": [
        {
          "internalType": "bytes32",
          "name": "role",
          "type": "bytes32"
        },
        {
          "internalType": "address",
          "name": "callerConfirmation",
          "type": "address"
        }
      ],
      "name": "renounceRole",
      "outputs": [],
      "stateMutability": "nonpayable",
      "type": "function"
    },
    {
      "inputs": [
        {
          "internalType": "bytes32",
          "name": "role",
          "type": "bytes32"
        },
        {
          "internalType": "address",
          "name": "account",
          "type": "address"
        }
      ],
      "name": "revokeRole",
      "outputs": [],
      "stateMutability": "nonpayable",
      "type": "function"
    },
    {
      "inputs": [
        {
          "internalType": "string",
          "name": "title",
          "type": "string"
        },
        {
          "internalType": "string",
          "name": "content",
          "type": "string"
        }
      ],
      "name": "submitArticle",
      "outputs": [],
      "stateMutability": "nonpayable",
      "type": "function"
    },
    {
      "inputs": [
        {
          "internalType": "bytes4",
          "name": "interfaceId",
          "type": "bytes4"
        }
      ],
      "name": "supportsInterface",
      "outputs": [
        {
          "internalType": "bool",
          "name": "",
          "type": "bool"
        }
      ],
      "stateMutability": "view",
      "type": "function"
    },
    {
      "inputs": [
        {
          "internalType": "uint256",
          "name": "articleId",
          "type": "uint256"
        },
        {
          "internalType": "string",
          "name": "newTitle",
          "type": "string"
        },
        {
          "internalType": "string",
          "name": "newContent",
          "type": "string"
        }
      ],
      "name": "updateArticle",
      "outputs": [],
      "stateMutability": "nonpayable",
      "type": "function"
    }
  ],
  "bytecode": "0x60806040523480156200001157600080fd5b50620000276000801b336200006160201b60201c565b506200005a7f0ac90c257048ef1c3e387c26d4a99bde06894efbcbff862dc1885c3a9319308a336200006160201b60201c565b50620001d6565b60006200007583836200016460201b60201c565b6200015957600160008085815260200190815260200160002060000160008473ffffffffffffffffffffffffffffffffffffffff1673ffffffffffffffffffffffffffffffffffffffff16815260200190815260200160002060006101000a81548160ff021916908315150217905550620000f5620001ce60201b60201c565b73ffffffffffffffffffffffffffffffffffffffff168273ffffffffffffffffffffffffffffffffffffffff16847f2f8788117e7eff1d82e926ec794901d17c78024a50270940304540a733656f0d60405160405180910390a4600190506200015e565b600090505b92915050565b600080600084815260200190815260200160002060000160008373ffffffffffffffffffffffffffffffffffffffff1673ffffffffffffffffffffffffffffffffffffffff16815260200190815260200160002060009054906101000a900460ff16905092915050565b600033905090565b61446d80620001e66000396000f3fe608060405234801561001057600080fd5b50600436106101da5760003560e01c80638867041211610104578063bd85d867116100a2578063d8f4b6fd11610071578063d8f4b6fd14610605578063d98fabc114610623578063edcfafe614610653578063ffcd40f314610687576101da565b8063bd85d8671461056d578063c634b78e1461059d578063c8eb09e8146105b9578063d547741f146105e9576101da565b80639ec578d9116100de5780639ec578d9146104d3578063a217fddf14610503578063abb7ae5d14610521578063bb09a8b214610551576101da565b8063886704121461045757806391d14854146104735780639201de55146104a3576101da565b80632f2ff15d1161017c5780634c96f2811161014b5780634c96f281146103bb57806351e59ffb146103d9578063703fd07d1461040957806373e4312d14610427576101da565b80632f2ff15d1461031e57806336568abe1461033a57806341859ac8146103565780634bab5a4614610386576101da565b8063248a9ca3116101b8578063248a9ca31461027257806324d7806c146102a257806325671a2f146102d25780632738f28a146102ee576101da565b806301ffc9a7146101df5780630a4d85cd1461020f5780631df550f714610242575b600080fd5b6101f960048036038101906101f49190612d30565b6106b7565b6040516102069190612d78565b60405180910390f35b61022960048036038101906102249190612df1565b610731565b6040516102399493929190612e5f565b60405180910390f35b61025c60048036038101906102579190612ed0565b61078e565b6040516102699190612efd565b60405180910390f35b61028c60048036038101906102879190612f4e565b6107cd565b6040516102999190612f8a565b60405180910390f35b6102bc60048036038101906102b79190612df1565b6107ec565b6040516102c99190612d78565b60405180910390f35b6102ec60048036038101906102e791906130eb565b610802565b005b61030860048036038101906103039190613163565b610c6e565b60405161031591906133a2565b60405180910390f35b610338600480360381019061033391906133c4565b610d33565b005b610354600480360381019061034f91906133c4565b610d55565b005b610370600480360381019061036b9190612df1565b610dd0565b60405161037d9190612d78565b60405180910390f35b6103a0600480360381019061039b9190612ed0565b610e03565b6040516103b29695949392919061344e565b60405180910390f35b6103c3610ff7565b6040516103d091906135e6565b60405180910390f35b6103f360048036038101906103ee9190612df1565b6112d5565b6040516104009190612efd565b60405180910390f35b610411611313565b60405161041e91906136b7565b60405180910390f35b610441600480360381019061043c9190612df1565b6113bf565b60405161044e91906133a2565b60405180910390f35b610471600480360381019061046c91906136d9565b6118f5565b005b61048d600480360381019061048891906133c4565b611ca7565b60405161049a9190612d78565b60405180910390f35b6104bd60048036038101906104b89190612f4e565b611d11565b6040516104ca9190613764565b60405180910390f35b6104ed60048036038101906104e89190612df1565b611d3a565b6040516104fa9190613764565b60405180910390f35b61050b611dda565b6040516105189190612f8a565b60405180910390f35b61053b60048036038101906105369190612ed0565b611de1565b6040516105489190613786565b60405180910390f35b61056b600480360381019061056691906137a1565b611df9565b005b61058760048036038101906105829190612ed0565b612108565b6040516105949190613894565b60405180910390f35b6105b760048036038101906105b29190612df1565b6123d9565b005b6105d360048036038101906105ce9190613163565b6123f7565b6040516105e09190612efd565b60405180910390f35b61060360048036038101906105fe91906133c4565b612440565b005b61060d612462565b60405161061a9190612f8a565b60405180910390f35b61063d600480360381019061063891906138b6565b612486565b60405161064a9190613786565b60405180910390f35b61066d60048036038101906106689190612ed0565b6124b7565b60405161067e9594939291906138f6565b60405180910390f35b6106a1600480360381019061069c9190612ed0565b6126a5565b6040516106ae9190613a83565b60405180910390f35b60007f7965db0b000000000000000000000000000000000000000000000000000000007bffffffffffffffffffffffffffffffffffffffffffffffffffffffff1916827bffffffffffffffffffffffffffffffffffffffffffffffffffffffff1916148061072a5750610729826128f4565b5b9050919050565b60056020528060005260406000206000915090508060000160009054906101000a900473ffffffffffffffffffffffffffffffffffffffff16908060010154908060020154908060030160009054906101000a900460ff16905084565b6001818154811061079e57600080fd5b906000526020600020016000915054906101000a900473ffffffffffffffffffffffffffffffffffffffff1681565b6000806000838152602001908152602001600020600101549050919050565b60006107fb6000801b83611ca7565b9050919050565b61082c7f0ac90c257048ef1c3e387c26d4a99bde06894efbcbff862dc1885c3a9319308a33611ca7565b61086b576040517f08c379a000000000000000000000000000000000000000000000000000000000815260040161086290613af1565b60405180910390fd5b60008251116108af576040517f08c379a00000000000000000000000000000000000000000000000000000000081526004016108a690613b5d565b60405180910390fd5b60008151116108f3576040517f08c379a00000000000000000000000000000000000000000000000000000000081526004016108ea90613bc9565b60405180910390fd5b6009600081548092919061090690613c18565b91905055506000600954905060008383604051602001610927929190613c9c565b604051602081830303815290604052805190602001209050836003600084815260200190815260200160002060000190816109629190613ecc565b50826003600084815260200190815260200160002060010190816109869190613ecc565b50426003600084815260200190815260200160002060020181905550336003600084815260200190815260200160002060030160006101000a81548173ffffffffffffffffffffffffffffffffffffffff021916908373ffffffffffffffffffffffffffffffffffffffff160217905550610a0081611d11565b600360008481526020019081526020016000206004019081610a229190613ecc565b506000600190506040518060800160405280828152602001610a4384611d11565b81526020013373ffffffffffffffffffffffffffffffffffffffff16815260200142815250600360008581526020019081526020016000206005016000838152602001908152602001600020600082015181600001556020820151816001019081610aae9190613ecc565b5060408201518160020160006101000a81548173ffffffffffffffffffffffffffffffffffffffff021916908373ffffffffffffffffffffffffffffffffffffffff16021790555060608201518160030155905050600660003373ffffffffffffffffffffffffffffffffffffffff1673ffffffffffffffffffffffffffffffffffffffff1681526020019081526020016000208390806001815401808255809150506001900390600052602060002001600090919091909150556040518060c001604052808481526020018681526020018581526020014281526020013373ffffffffffffffffffffffffffffffffffffffff168152602001610bb184611d11565b81525060046000858152602001908152602001600020600082015181600001556020820151816001019081610be69190613ecc565b506040820151816002019081610bfc9190613ecc565b506060820151816003015560808201518160040160006101000a81548173ffffffffffffffffffffffffffffffffffffffff021916908373ffffffffffffffffffffffffffffffffffffffff16021790555060a0820151816005019081610c639190613ecc565b509050505050505050565b60606000600783604051610c829190613f9e565b908152602001604051809103902060009054906101000a900473ffffffffffffffffffffffffffffffffffffffff169050600073ffffffffffffffffffffffffffffffffffffffff168173ffffffffffffffffffffffffffffffffffffffff1603610d22576040517f08c379a0000000000000000000000000000000000000000000000000000000008152600401610d1990614001565b60405180910390fd5b610d2b816113bf565b915050919050565b610d3c826107cd565b610d458161295e565b610d4f8383612972565b50505050565b610d5d612a63565b73ffffffffffffffffffffffffffffffffffffffff168173ffffffffffffffffffffffffffffffffffffffff1614610dc1576040517f6697b23200000000000000000000000000000000000000000000000000000000815260040160405180910390fd5b610dcb8282612a6b565b505050565b6000610dfc7f0ac90c257048ef1c3e387c26d4a99bde06894efbcbff862dc1885c3a9319308a83611ca7565b9050919050565b6004602052806000526040600020600091509050806000015490806001018054610e2c90613cef565b80601f0160208091040260200160405190810160405280929190818152602001828054610e5890613cef565b8015610ea55780601f10610e7a57610100808354040283529160200191610ea5565b820191906000526020600020905b815481529060010190602001808311610e8857829003601f168201915b505050505090806002018054610eba90613cef565b80601f0160208091040260200160405190810160405280929190818152602001828054610ee690613cef565b8015610f335780601f10610f0857610100808354040283529160200191610f33565b820191906000526020600020905b815481529060010190602001808311610f1657829003601f168201915b5050505050908060030154908060040160009054906101000a900473ffffffffffffffffffffffffffffffffffffffff1690806005018054610f7490613cef565b80601f0160208091040260200160405190810160405280929190818152602001828054610fa090613cef565b8015610fed5780601f10610fc257610100808354040283529160200191610fed565b820191906000526020600020905b815481529060010190602001808311610fd057829003601f168201915b5050505050905086565b60606000805b6001805490508110156110bf576000600182815481106110205761101f614021565b5b9060005260206000200160009054906101000a900473ffffffffffffffffffffffffffffffffffffffff169050600560008273ffffffffffffffffffffffffffffffffffffffff1673ffffffffffffffffffffffffffffffffffffffff16815260200190815260200160002060030160009054906101000a900460ff16156110b15782806110ad90613c18565b9350505b508080600101915050610ffd565b5060008167ffffffffffffffff8111156110dc576110db612fc0565b5b60405190808252806020026020018201604052801561111557816020015b611102612bae565b8152602001906001900390816110fa5790505b5090506000805b6001805490508110156112cb5760006001828154811061113f5761113e614021565b5b9060005260206000200160009054906101000a900473ffffffffffffffffffffffffffffffffffffffff169050600560008273ffffffffffffffffffffffffffffffffffffffff1673ffffffffffffffffffffffffffffffffffffffff16815260200190815260200160002060030160009054906101000a900460ff16156112bd57600560008273ffffffffffffffffffffffffffffffffffffffff1673ffffffffffffffffffffffffffffffffffffffff1681526020019081526020016000206040518060800160405290816000820160009054906101000a900473ffffffffffffffffffffffffffffffffffffffff1673ffffffffffffffffffffffffffffffffffffffff1673ffffffffffffffffffffffffffffffffffffffff16815260200160018201548152602001600282015481526020016003820160009054906101000a900460ff1615151515815250508484815181106112a3576112a2614021565b5b602002602001018190525082806112b990613c18565b9350505b50808060010191505061111c565b5081935050505090565b60086020528060005260406000206000915090508060000160009054906101000a900473ffffffffffffffffffffffffffffffffffffffff16905081565b60606000600954905060008167ffffffffffffffff81111561133857611337612fc0565b5b6040519080825280602002602001820160405280156113665781602001602082028036833780820191505090505b5090506000600190505b8281116113b65780826001836113869190614050565b8151811061139757611396614021565b5b60200260200101818152505080806113ae90613c18565b915050611370565b50809250505090565b6060600560008373ffffffffffffffffffffffffffffffffffffffff1673ffffffffffffffffffffffffffffffffffffffff16815260200190815260200160002060030160009054906101000a900460ff16611450576040517f08c379a0000000000000000000000000000000000000000000000000000000008152600401611447906140d0565b60405180910390fd5b6000600660008473ffffffffffffffffffffffffffffffffffffffff1673ffffffffffffffffffffffffffffffffffffffff1681526020019081526020016000208054806020026020016040519081016040528092919081815260200182805480156114db57602002820191906000526020600020905b8154815260200190600101908083116114c7575b505050505090506000815167ffffffffffffffff8111156114ff576114fe612fc0565b5b60405190808252806020026020018201604052801561153857816020015b611525612bee565b81526020019060019003908161151d5790505b50905060005b82518110156118ea576000600360008584815181106115605761155f614021565b5b6020026020010151815260200190815260200160002060020154036115ba576040517f08c379a00000000000000000000000000000000000000000000000000000000081526004016115b19061413c565b60405180910390fd5b6040518060c001604052808483815181106115d8576115d7614021565b5b60200260200101518152602001600360008685815181106115fc576115fb614021565b5b60200260200101518152602001908152602001600020600001805461162090613cef565b80601f016020809104026020016040519081016040528092919081815260200182805461164c90613cef565b80156116995780601f1061166e57610100808354040283529160200191611699565b820191906000526020600020905b81548152906001019060200180831161167c57829003601f168201915b50505050508152602001600360008685815181106116ba576116b9614021565b5b6020026020010151815260200190815260200160002060010180546116de90613cef565b80601f016020809104026020016040519081016040528092919081815260200182805461170a90613cef565b80156117575780601f1061172c57610100808354040283529160200191611757565b820191906000526020600020905b81548152906001019060200180831161173a57829003601f168201915b505050505081526020016003600086858151811061177857611777614021565b5b60200260200101518152602001908152602001600020600201548152602001600360008685815181106117ae576117ad614021565b5b6020026020010151815260200190815260200160002060030160009054906101000a900473ffffffffffffffffffffffffffffffffffffffff1673ffffffffffffffffffffffffffffffffffffffff1681526020016003600086858151811061181a57611819614021565b5b60200260200101518152602001908152602001600020600401805461183e90613cef565b80601f016020809104026020016040519081016040528092919081815260200182805461186a90613cef565b80156118b75780601f1061188c576101008083540402835291602001916118b7565b820191906000526020600020905b81548152906001019060200180831161189a57829003601f168201915b50505050508152508282815181106118d2576118d1614021565b5b6020026020010181905250808060010191505061153e565b508092505050919050565b61191f7f0ac90c257048ef1c3e387c26d4a99bde06894efbcbff862dc1885c3a9319308a33611ca7565b61195e576040517f08c379a000000000000000000000000000000000000000000000000000000000815260040161195590613af1565b60405180910390fd5b60006003600085815260200190815260200160002060030160009054906101000a900473ffffffffffffffffffffffffffffffffffffffff16905060006003600086815260200190815260200160002060020154036119f2576040517f08c379a00000000000000000000000000000000000000000000000000000000081526004016119e99061413c565b60405180910390fd5b8073ffffffffffffffffffffffffffffffffffffffff163373ffffffffffffffffffffffffffffffffffffffff1614611a60576040517f08c379a0000000000000000000000000000000000000000000000000000000008152600401611a57906141ce565b60405180910390fd5b6000835111611aa4576040517f08c379a0000000000000000000000000000000000000000000000000000000008152600401611a9b9061423a565b60405180910390fd5b6000825111611ae8576040517f08c379a0000000000000000000000000000000000000000000000000000000008152600401611adf906142a6565b60405180910390fd5b60008383604051602001611afd929190613c9c565b60405160208183030381529060405280519060200120905083600360008781526020019081526020016000206000019081611b389190613ecc565b5082600360008781526020019081526020016000206001019081611b5c9190613ecc565b50611b6681611d11565b600360008781526020019081526020016000206004019081611b889190613ecc565b5060006001600a600088815260200190815260200160002054611bab91906142c6565b90506040518060800160405280828152602001611bc784611d11565b81526020013373ffffffffffffffffffffffffffffffffffffffff16815260200142815250600360008881526020019081526020016000206005016000838152602001908152602001600020600082015181600001556020820151816001019081611c329190613ecc565b5060408201518160020160006101000a81548173ffffffffffffffffffffffffffffffffffffffff021916908373ffffffffffffffffffffffffffffffffffffffff1602179055506060820151816003015590505080600a600088815260200190815260200160002081905550505050505050565b600080600084815260200190815260200160002060000160008373ffffffffffffffffffffffffffffffffffffffff1673ffffffffffffffffffffffffffffffffffffffff16815260200190815260200160002060009054906101000a900460ff16905092915050565b606081604051602001611d24919061431b565b6040516020818303038152906040529050919050565b60026020528060005260406000206000915090508054611d5990613cef565b80601f0160208091040260200160405190810160405280929190818152602001828054611d8590613cef565b8015611dd25780601f10611da757610100808354040283529160200191611dd2565b820191906000526020600020905b815481529060010190602001808311611db557829003601f168201915b505050505081565b6000801b81565b600a6020528060005260406000206000915090505481565b611e066000801b33611ca7565b611e45576040517f08c379a0000000000000000000000000000000000000000000000000000000008152600401611e3c90614382565b60405180910390fd5b600560008373ffffffffffffffffffffffffffffffffffffffff1673ffffffffffffffffffffffffffffffffffffffff16815260200190815260200160002060030160009054906101000a900460ff1615611ed5576040517f08c379a0000000000000000000000000000000000000000000000000000000008152600401611ecc906143ee565b60405180910390fd5b60405180608001604052808373ffffffffffffffffffffffffffffffffffffffff1681526020014281526020016000815260200160011515815250600560008473ffffffffffffffffffffffffffffffffffffffff1673ffffffffffffffffffffffffffffffffffffffff16815260200190815260200160002060008201518160000160006101000a81548173ffffffffffffffffffffffffffffffffffffffff021916908373ffffffffffffffffffffffffffffffffffffffff160217905550602082015181600101556040820151816002015560608201518160030160006101000a81548160ff0219169083151502179055509050506001829080600181540180825580915050600190039060005260206000200160009091909190916101000a81548173ffffffffffffffffffffffffffffffffffffffff021916908373ffffffffffffffffffffffffffffffffffffffff16021790555080600260008473ffffffffffffffffffffffffffffffffffffffff1673ffffffffffffffffffffffffffffffffffffffff168152602001908152602001600020908161207c9190613ecc565b508160078260405161208e9190613f9e565b908152602001604051809103902060006101000a81548173ffffffffffffffffffffffffffffffffffffffff021916908373ffffffffffffffffffffffffffffffffffffffff1602179055506121047f0ac90c257048ef1c3e387c26d4a99bde06894efbcbff862dc1885c3a9319308a83610d33565b5050565b612110612c3a565b6000600460008481526020019081526020016000206003015403612169576040517f08c379a00000000000000000000000000000000000000000000000000000000081526004016121609061413c565b60405180910390fd5b6040518060c0016040528083815260200160046000858152602001908152602001600020600101805461219b90613cef565b80601f01602080910402602001604051908101604052809291908181526020018280546121c790613cef565b80156122145780601f106121e957610100808354040283529160200191612214565b820191906000526020600020905b8154815290600101906020018083116121f757829003601f168201915b5050505050815260200160046000858152602001908152602001600020600201805461223f90613cef565b80601f016020809104026020016040519081016040528092919081815260200182805461226b90613cef565b80156122b85780601f1061228d576101008083540402835291602001916122b8565b820191906000526020600020905b81548152906001019060200180831161229b57829003601f168201915b50505050508152602001600460008581526020019081526020016000206003015481526020016004600085815260200190815260200160002060040160009054906101000a900473ffffffffffffffffffffffffffffffffffffffff1673ffffffffffffffffffffffffffffffffffffffff16815260200160046000858152602001908152602001600020600501805461235190613cef565b80601f016020809104026020016040519081016040528092919081815260200182805461237d90613cef565b80156123ca5780601f1061239f576101008083540402835291602001916123ca565b820191906000526020600020905b8154815290600101906020018083116123ad57829003601f168201915b50505050508152509050919050565b6000801b6123e68161295e565b6123f36000801b83610d33565b5050565b6007818051602081018201805184825260208301602085012081835280955050505050506000915054906101000a900473ffffffffffffffffffffffffffffffffffffffff1681565b612449826107cd565b6124528161295e565b61245c8383612a6b565b50505050565b7f0ac90c257048ef1c3e387c26d4a99bde06894efbcbff862dc1885c3a9319308a81565b600660205281600052604060002081815481106124a257600080fd5b90600052602060002001600091509150505481565b60036020528060005260406000206000915090508060000180546124da90613cef565b80601f016020809104026020016040519081016040528092919081815260200182805461250690613cef565b80156125535780601f1061252857610100808354040283529160200191612553565b820191906000526020600020905b81548152906001019060200180831161253657829003601f168201915b50505050509080600101805461256890613cef565b80601f016020809104026020016040519081016040528092919081815260200182805461259490613cef565b80156125e15780601f106125b6576101008083540402835291602001916125e1565b820191906000526020600020905b8154815290600101906020018083116125c457829003601f168201915b5050505050908060020154908060030160009054906101000a900473ffffffffffffffffffffffffffffffffffffffff169080600401805461262290613cef565b80601f016020809104026020016040519081016040528092919081815260200182805461264e90613cef565b801561269b5780601f106126705761010080835404028352916020019161269b565b820191906000526020600020905b81548152906001019060200180831161267e57829003601f168201915b5050505050905085565b60606000600360008481526020019081526020016000206002015403612700576040517f08c379a00000000000000000000000000000000000000000000000000000000081526004016126f79061413c565b60405180910390fd5b6000600a600084815260200190815260200160002054905060008167ffffffffffffffff81111561273457612733612fc0565b5b60405190808252806020026020018201604052801561276d57816020015b61275a612c86565b8152602001906001900390816127525790505b5090506000600190505b8281116128e957600360008681526020019081526020016000206005016000828152602001908152602001600020604051806080016040529081600082015481526020016001820180546127ca90613cef565b80601f01602080910402602001604051908101604052809291908181526020018280546127f690613cef565b80156128435780601f1061281857610100808354040283529160200191612843565b820191906000526020600020905b81548152906001019060200180831161282657829003601f168201915b505050505081526020016002820160009054906101000a900473ffffffffffffffffffffffffffffffffffffffff1673ffffffffffffffffffffffffffffffffffffffff1673ffffffffffffffffffffffffffffffffffffffff168152602001600382015481525050826001836128ba9190614050565b815181106128cb576128ca614021565b5b602002602001018190525080806128e190613c18565b915050612777565b508092505050919050565b60007f01ffc9a7000000000000000000000000000000000000000000000000000000007bffffffffffffffffffffffffffffffffffffffffffffffffffffffff1916827bffffffffffffffffffffffffffffffffffffffffffffffffffffffff1916149050919050565b61296f8161296a612a63565b612b5d565b50565b600061297e8383611ca7565b612a5857600160008085815260200190815260200160002060000160008473ffffffffffffffffffffffffffffffffffffffff1673ffffffffffffffffffffffffffffffffffffffff16815260200190815260200160002060006101000a81548160ff0219169083151502179055506129f5612a63565b73ffffffffffffffffffffffffffffffffffffffff168273ffffffffffffffffffffffffffffffffffffffff16847f2f8788117e7eff1d82e926ec794901d17c78024a50270940304540a733656f0d60405160405180910390a460019050612a5d565b600090505b92915050565b600033905090565b6000612a778383611ca7565b15612b5257600080600085815260200190815260200160002060000160008473ffffffffffffffffffffffffffffffffffffffff1673ffffffffffffffffffffffffffffffffffffffff16815260200190815260200160002060006101000a81548160ff021916908315150217905550612aef612a63565b73ffffffffffffffffffffffffffffffffffffffff168273ffffffffffffffffffffffffffffffffffffffff16847ff6391f5c32d9c69d2a47ea670b442974b53935d1edc7fd64eb21e047a839171b60405160405180910390a460019050612b57565b600090505b92915050565b612b678282611ca7565b612baa5780826040517fe2517d3f000000000000000000000000000000000000000000000000000000008152600401612ba192919061440e565b60405180910390fd5b5050565b6040518060800160405280600073ffffffffffffffffffffffffffffffffffffffff16815260200160008152602001600081526020016000151581525090565b6040518060c0016040528060008152602001606081526020016060815260200160008152602001600073ffffffffffffffffffffffffffffffffffffffff168152602001606081525090565b6040518060c0016040528060008152602001606081526020016060815260200160008152602001600073ffffffffffffffffffffffffffffffffffffffff168152602001606081525090565b60405180608001604052806000815260200160608152602001600073ffffffffffffffffffffffffffffffffffffffff168152602001600081525090565b6000604051905090565b600080fd5b600080fd5b60007fffffffff0000000000000000000000000000000000000000000000000000000082169050919050565b612d0d81612cd8565b8114612d1857600080fd5b50565b600081359050612d2a81612d04565b92915050565b600060208284031215612d4657612d45612cce565b5b6000612d5484828501612d1b565b91505092915050565b60008115159050919050565b612d7281612d5d565b82525050565b6000602082019050612d8d6000830184612d69565b92915050565b600073ffffffffffffffffffffffffffffffffffffffff82169050919050565b6000612dbe82612d93565b9050919050565b612dce81612db3565b8114612dd957600080fd5b50565b600081359050612deb81612dc5565b92915050565b600060208284031215612e0757612e06612cce565b5b6000612e1584828501612ddc565b91505092915050565b612e2781612db3565b82525050565b6000819050919050565b612e4081612e2d565b82525050565b6000819050919050565b612e5981612e46565b82525050565b6000608082019050612e746000830187612e1e565b612e816020830186612e37565b612e8e6040830185612e50565b612e9b6060830184612d69565b95945050505050565b612ead81612e2d565b8114612eb857600080fd5b50565b600081359050612eca81612ea4565b92915050565b600060208284031215612ee657612ee5612cce565b5b6000612ef484828501612ebb565b91505092915050565b6000602082019050612f126000830184612e1e565b92915050565b6000819050919050565b612f2b81612f18565b8114612f3657600080fd5b50565b600081359050612f4881612f22565b92915050565b600060208284031215612f6457612f63612cce565b5b6000612f7284828501612f39565b91505092915050565b612f8481612f18565b82525050565b6000602082019050612f9f6000830184612f7b565b92915050565b600080fd5b600080fd5b6000601f19601f8301169050919050565b7f4e487b7100000000000000000000000000000000000000000000000000000000600052604160045260246000fd5b612ff882612faf565b810181811067ffffffffffffffff8211171561301757613016612fc0565b5b80604052505050565b600061302a612cc4565b90506130368282612fef565b919050565b600067ffffffffffffffff82111561305657613055612fc0565b5b61305f82612faf565b9050602081019050919050565b82818337600083830152505050565b600061308e6130898461303b565b613020565b9050828152602081018484840111156130aa576130a9612faa565b5b6130b584828561306c565b509392505050565b600082601f8301126130d2576130d1612fa5565b5b81356130e284826020860161307b565b91505092915050565b6000806040838503121561310257613101612cce565b5b600083013567ffffffffffffffff8111156131205761311f612cd3565b5b61312c858286016130bd565b925050602083013567ffffffffffffffff81111561314d5761314c612cd3565b5b613159858286016130bd565b9150509250929050565b60006020828403121561317957613178612cce565b5b600082013567ffffffffffffffff81111561319757613196612cd3565b5b6131a3848285016130bd565b91505092915050565b600081519050919050565b600082825260208201905092915050565b6000819050602082019050919050565b6131e181612e2d565b82525050565b600081519050919050565b600082825260208201905092915050565b60005b83811015613221578082015181840152602081019050613206565b60008484015250505050565b6000613238826131e7565b61324281856131f2565b9350613252818560208601613203565b61325b81612faf565b840191505092915050565b61326f81612db3565b82525050565b600060c08301600083015161328d60008601826131d8565b50602083015184820360208601526132a5828261322d565b915050604083015184820360408601526132bf828261322d565b91505060608301516132d460608601826131d8565b5060808301516132e76080860182613266565b5060a083015184820360a08601526132ff828261322d565b9150508091505092915050565b60006133188383613275565b905092915050565b6000602082019050919050565b6000613338826131ac565b61334281856131b7565b935083602082028501613354856131c8565b8060005b858110156133905784840389528151613371858261330c565b945061337c83613320565b925060208a01995050600181019050613358565b50829750879550505050505092915050565b600060208201905081810360008301526133bc818461332d565b905092915050565b600080604083850312156133db576133da612cce565b5b60006133e985828601612f39565b92505060206133fa85828601612ddc565b9150509250929050565b600082825260208201905092915050565b6000613420826131e7565b61342a8185613404565b935061343a818560208601613203565b61344381612faf565b840191505092915050565b600060c0820190506134636000830189612e37565b81810360208301526134758188613415565b905081810360408301526134898187613415565b90506134986060830186612e37565b6134a56080830185612e1e565b81810360a08301526134b78184613415565b9050979650505050505050565b600081519050919050565b600082825260208201905092915050565b6000819050602082019050919050565b6134f981612e46565b82525050565b61350881612d5d565b82525050565b6080820160008201516135246000850182613266565b50602082015161353760208501826131d8565b50604082015161354a60408501826134f0565b50606082015161355d60608501826134ff565b50505050565b600061356f838361350e565b60808301905092915050565b6000602082019050919050565b6000613593826134c4565b61359d81856134cf565b93506135a8836134e0565b8060005b838110156135d95781516135c08882613563565b97506135cb8361357b565b9250506001810190506135ac565b5085935050505092915050565b600060208201905081810360008301526136008184613588565b905092915050565b600081519050919050565b600082825260208201905092915050565b6000819050602082019050919050565b600061364083836131d8565b60208301905092915050565b6000602082019050919050565b600061366482613608565b61366e8185613613565b935061367983613624565b8060005b838110156136aa5781516136918882613634565b975061369c8361364c565b92505060018101905061367d565b5085935050505092915050565b600060208201905081810360008301526136d18184613659565b905092915050565b6000806000606084860312156136f2576136f1612cce565b5b600061370086828701612ebb565b935050602084013567ffffffffffffffff81111561372157613720612cd3565b5b61372d868287016130bd565b925050604084013567ffffffffffffffff81111561374e5761374d612cd3565b5b61375a868287016130bd565b9150509250925092565b6000602082019050818103600083015261377e8184613415565b905092915050565b600060208201905061379b6000830184612e37565b92915050565b600080604083850312156137b8576137b7612cce565b5b60006137c685828601612ddc565b925050602083013567ffffffffffffffff8111156137e7576137e6612cd3565b5b6137f3858286016130bd565b9150509250929050565b600060c08301600083015161381560008601826131d8565b506020830151848203602086015261382d828261322d565b91505060408301518482036040860152613847828261322d565b915050606083015161385c60608601826131d8565b50608083015161386f6080860182613266565b5060a083015184820360a0860152613887828261322d565b9150508091505092915050565b600060208201905081810360008301526138ae81846137fd565b905092915050565b600080604083850312156138cd576138cc612cce565b5b60006138db85828601612ddc565b92505060206138ec85828601612ebb565b9150509250929050565b600060a08201905081810360008301526139108188613415565b905081810360208301526139248187613415565b90506139336040830186612e37565b6139406060830185612e1e565b81810360808301526139528184613415565b90509695505050505050565b600081519050919050565b600082825260208201905092915050565b6000819050602082019050919050565b60006080830160008301516139a260008601826131d8565b50602083015184820360208601526139ba828261322d565b91505060408301516139cf6040860182613266565b5060608301516139e260608601826131d8565b508091505092915050565b60006139f9838361398a565b905092915050565b6000602082019050919050565b6000613a198261395e565b613a238185613969565b935083602082028501613a358561397a565b8060005b85811015613a715784840389528151613a5285826139ed565b9450613a5d83613a01565b925060208a01995050600181019050613a39565b50829750879550505050505092915050565b60006020820190508181036000830152613a9d8184613a0e565b905092915050565b7f43616c6c6572206973206e6f742061207075626c697368657200000000000000600082015250565b6000613adb601983613404565b9150613ae682613aa5565b602082019050919050565b60006020820190508181036000830152613b0a81613ace565b9050919050565b7f5469746c652063616e6e6f7420626520656d7074790000000000000000000000600082015250565b6000613b47601583613404565b9150613b5282613b11565b602082019050919050565b60006020820190508181036000830152613b7681613b3a565b9050919050565b7f436f6e74656e742063616e6e6f7420626520656d707479000000000000000000600082015250565b6000613bb3601783613404565b9150613bbe82613b7d565b602082019050919050565b60006020820190508181036000830152613be281613ba6565b9050919050565b7f4e487b7100000000000000000000000000000000000000000000000000000000600052601160045260246000fd5b6000613c2382612e2d565b91507fffffffffffffffffffffffffffffffffffffffffffffffffffffffffffffffff8203613c5557613c54613be9565b5b600182019050919050565b600081905092915050565b6000613c76826131e7565b613c808185613c60565b9350613c90818560208601613203565b80840191505092915050565b6000613ca88285613c6b565b9150613cb48284613c6b565b91508190509392505050565b7f4e487b7100000000000000000000000000000000000000000000000000000000600052602260045260246000fd5b60006002820490506001821680613d0757607f821691505b602082108103613d1a57613d19613cc0565b5b50919050565b60008190508160005260206000209050919050565b60006020601f8301049050919050565b600082821b905092915050565b600060088302613d827fffffffffffffffffffffffffffffffffffffffffffffffffffffffffffffffff82613d45565b613d8c8683613d45565b95508019841693508086168417925050509392505050565b6000819050919050565b6000613dc9613dc4613dbf84612e2d565b613da4565b612e2d565b9050919050565b6000819050919050565b613de383613dae565b613df7613def82613dd0565b848454613d52565b825550505050565b600090565b613e0c613dff565b613e17818484613dda565b505050565b5b81811015613e3b57613e30600082613e04565b600181019050613e1d565b5050565b601f821115613e8057613e5181613d20565b613e5a84613d35565b81016020851015613e69578190505b613e7d613e7585613d35565b830182613e1c565b50505b505050565b600082821c905092915050565b6000613ea360001984600802613e85565b1980831691505092915050565b6000613ebc8383613e92565b9150826002028217905092915050565b613ed5826131e7565b67ffffffffffffffff811115613eee57613eed612fc0565b5b613ef88254613cef565b613f03828285613e3f565b600060209050601f831160018114613f365760008415613f24578287015190505b613f2e8582613eb0565b865550613f96565b601f198416613f4486613d20565b60005b82811015613f6c57848901518255600182019150602085019450602081019050613f47565b86831015613f895784890151613f85601f891682613e92565b8355505b6001600288020188555050505b505050505050565b6000613faa8284613c6b565b915081905092915050565b7f5075626c6973686572206e6f7420666f756e6400000000000000000000000000600082015250565b6000613feb601383613404565b9150613ff682613fb5565b602082019050919050565b6000602082019050818103600083015261401a81613fde565b9050919050565b7f4e487b7100000000000000000000000000000000000000000000000000000000600052603260045260246000fd5b600061405b82612e2d565b915061406683612e2d565b925082820390508181111561407e5761407d613be9565b5b92915050565b7f5075626c6973686572206e6f7420726567697374657265640000000000000000600082015250565b60006140ba601883613404565b91506140c582614084565b602082019050919050565b600060208201905081810360008301526140e9816140ad565b9050919050565b7f41727469636c6520646f6573206e6f7420657869737400000000000000000000600082015250565b6000614126601683613404565b9150614131826140f0565b602082019050919050565b6000602082019050818103600083015261415581614119565b9050919050565b7f4f6e6c7920746865206f726967696e616c207075626c69736865722063616e2060008201527f7570646174652e00000000000000000000000000000000000000000000000000602082015250565b60006141b8602783613404565b91506141c38261415c565b604082019050919050565b600060208201905081810360008301526141e7816141ab565b9050919050565b7f4e6577207469746c652063616e6e6f7420626520656d70747900000000000000600082015250565b6000614224601983613404565b915061422f826141ee565b602082019050919050565b6000602082019050818103600083015261425381614217565b9050919050565b7f4e657720636f6e74656e742063616e6e6f7420626520656d7074790000000000600082015250565b6000614290601b83613404565b915061429b8261425a565b602082019050919050565b600060208201905081810360008301526142bf81614283565b9050919050565b60006142d182612e2d565b91506142dc83612e2d565b92508282019050808211156142f4576142f3613be9565b5b92915050565b6000819050919050565b61431561431082612f18565b6142fa565b82525050565b60006143278284614304565b60208201915081905092915050565b7f43616c6c6572206973206e6f7420616e2061646d696e00000000000000000000600082015250565b600061436c601683613404565b915061437782614336565b602082019050919050565b6000602082019050818103600083015261439b8161435f565b9050919050565b7f5075626c697368657220616c7265616479207265676973746572656400000000600082015250565b60006143d8601c83613404565b91506143e3826143a2565b602082019050919050565b60006020820190508181036000830152614407816143cb565b9050919050565b60006040820190506144236000830185612e1e565b6144306020830184612f7b565b939250505056fea26469706673582212200e5823a4790178da301bad3bbc7abd32640cd1a1922cb8e06f16ad7891a2011864736f6c63430008180033",
  "linkReferences": {},
  "deployedLinkReferences": {}
}