{
  "_format": "hh-sol-artifact-1",
  "contractName": "NewsPlatform",
  "sourceName": "contracts/NewsPlatform.sol",
  "abi": [
    {
      "inputs": [],
      "stateMutability": "nonpayable",
      "type": "constructor"
    },
    {
      "inputs": [],
      "name": "AccessControlBadConfirmation",
      "type": "error"
    },
    {
      "inputs": [
        {
          "internalType": "address",
          "name": "account",
          "type": "address"
        },
        {
          "internalType": "bytes32",
          "name": "neededRole",
          "type": "bytes32"
        }
      ],
      "name": "AccessControlUnauthorizedAccount",
      "type": "error"
    },
    {
      "anonymous": false,
      "inputs": [
        {
          "indexed": true,
          "internalType": "bytes32",
          "name": "role",
          "type": "bytes32"
        },
        {
          "indexed": true,
          "internalType": "bytes32",
          "name": "previousAdminRole",
          "type": "bytes32"
        },
        {
          "indexed": true,
          "internalType": "bytes32",
          "name": "newAdminRole",
          "type": "bytes32"
        }
      ],
      "name": "RoleAdminChanged",
      "type": "event"
    },
    {
      "anonymous": false,
      "inputs": [
        {
          "indexed": true,
          "internalType": "bytes32",
          "name": "role",
          "type": "bytes32"
        },
        {
          "indexed": true,
          "internalType": "address",
          "name": "account",
          "type": "address"
        },
        {
          "indexed": true,
          "internalType": "address",
          "name": "sender",
          "type": "address"
        }
      ],
      "name": "RoleGranted",
      "type": "event"
    },
    {
      "anonymous": false,
      "inputs": [
        {
          "indexed": true,
          "internalType": "bytes32",
          "name": "role",
          "type": "bytes32"
        },
        {
          "indexed": true,
          "internalType": "address",
          "name": "account",
          "type": "address"
        },
        {
          "indexed": true,
          "internalType": "address",
          "name": "sender",
          "type": "address"
        }
      ],
      "name": "RoleRevoked",
      "type": "event"
    },
    {
      "inputs": [],
      "name": "DEFAULT_ADMIN_ROLE",
      "outputs": [
        {
          "internalType": "bytes32",
          "name": "",
          "type": "bytes32"
        }
      ],
      "stateMutability": "view",
      "type": "function"
    },
    {
      "inputs": [],
      "name": "PUBLISHER_ROLE",
      "outputs": [
        {
          "internalType": "bytes32",
          "name": "",
          "type": "bytes32"
        }
      ],
      "stateMutability": "view",
      "type": "function"
    },
    {
      "inputs": [
        {
          "internalType": "uint256",
          "name": "",
          "type": "uint256"
        }
      ],
      "name": "articleVersionCounts",
      "outputs": [
        {
          "internalType": "uint256",
          "name": "",
          "type": "uint256"
        }
      ],
      "stateMutability": "view",
      "type": "function"
    },
    {
      "inputs": [
        {
          "internalType": "uint256",
          "name": "",
          "type": "uint256"
        }
      ],
      "name": "articleVersionless",
      "outputs": [
        {
          "internalType": "string",
          "name": "title",
          "type": "string"
        },
        {
          "internalType": "string",
          "name": "content",
          "type": "string"
        },
        {
          "internalType": "uint256",
          "name": "timestamp",
          "type": "uint256"
        },
        {
          "internalType": "address",
          "name": "publisherID",
          "type": "address"
        },
        {
          "internalType": "string",
          "name": "articleHash",
          "type": "string"
        }
      ],
      "stateMutability": "view",
      "type": "function"
    },
    {
      "inputs": [
        {
          "internalType": "uint256",
          "name": "",
          "type": "uint256"
        }
      ],
      "name": "articles",
      "outputs": [
        {
          "internalType": "string",
          "name": "title",
          "type": "string"
        },
        {
          "internalType": "string",
          "name": "content",
          "type": "string"
        },
        {
          "internalType": "uint256",
          "name": "timestamp",
          "type": "uint256"
        },
        {
          "internalType": "address",
          "name": "publisherID",
          "type": "address"
        },
        {
          "internalType": "string",
          "name": "articleHash",
          "type": "string"
        }
      ],
      "stateMutability": "view",
      "type": "function"
    },
    {
      "inputs": [
        {
          "internalType": "bytes32",
          "name": "_bytes32",
          "type": "bytes32"
        }
      ],
      "name": "bytes32ToString",
      "outputs": [
        {
          "internalType": "string",
          "name": "",
          "type": "string"
        }
      ],
      "stateMutability": "pure",
      "type": "function"
    },
    {
      "inputs": [],
      "name": "getAllPublishers",
      "outputs": [
        {
          "components": [
            {
              "internalType": "address",
              "name": "publisherID",
              "type": "address"
            },
            {
              "internalType": "uint256",
              "name": "registrationTimestamp",
              "type": "uint256"
            },
            {
              "internalType": "int256",
              "name": "reputationScore",
              "type": "int256"
            },
            {
              "internalType": "bool",
              "name": "isRegistered",
              "type": "bool"
            }
          ],
          "internalType": "struct NewsPlatform.Publisher[]",
          "name": "",
          "type": "tuple[]"
        }
      ],
      "stateMutability": "view",
      "type": "function"
    },
    {
      "inputs": [
        {
          "internalType": "uint256",
          "name": "articleId",
          "type": "uint256"
        }
      ],
      "name": "getArticle",
      "outputs": [
        {
          "components": [
            {
              "internalType": "string",
              "name": "title",
              "type": "string"
            },
            {
              "internalType": "string",
              "name": "content",
              "type": "string"
            },
            {
              "internalType": "uint256",
              "name": "timestamp",
              "type": "uint256"
            },
            {
              "internalType": "address",
              "name": "publisherID",
              "type": "address"
            },
            {
              "internalType": "string",
              "name": "articleHash",
              "type": "string"
            }
          ],
          "internalType": "struct NewsPlatform.ArticlewithOutVersion",
          "name": "",
          "type": "tuple"
        }
      ],
      "stateMutability": "view",
      "type": "function"
    },
    {
      "inputs": [
        {
          "internalType": "uint256",
          "name": "articleId",
          "type": "uint256"
        }
      ],
      "name": "getArticleHistory",
      "outputs": [
        {
          "components": [
            {
              "internalType": "uint256",
              "name": "versionNumber",
              "type": "uint256"
            },
            {
              "internalType": "string",
              "name": "articleHash",
              "type": "string"
            },
            {
              "internalType": "address",
              "name": "editorID",
              "type": "address"
            },
            {
              "internalType": "uint256",
              "name": "editTimestamp",
              "type": "uint256"
            }
          ],
          "internalType": "struct NewsPlatform.ArticleVersion[]",
          "name": "",
          "type": "tuple[]"
        }
      ],
      "stateMutability": "view",
      "type": "function"
    },
    {
      "inputs": [
        {
          "internalType": "address",
          "name": "publisherAddress",
          "type": "address"
        }
      ],
      "name": "getArticlesByPublisher",
      "outputs": [
        {
          "components": [
            {
              "internalType": "string",
              "name": "title",
              "type": "string"
            },
            {
              "internalType": "string",
              "name": "content",
              "type": "string"
            },
            {
              "internalType": "uint256",
              "name": "timestamp",
              "type": "uint256"
            },
            {
              "internalType": "address",
              "name": "publisherID",
              "type": "address"
            },
            {
              "internalType": "string",
              "name": "articleHash",
              "type": "string"
            }
          ],
          "internalType": "struct NewsPlatform.ArticlewithOutVersion[]",
          "name": "",
          "type": "tuple[]"
        }
      ],
      "stateMutability": "view",
      "type": "function"
    },
    {
      "inputs": [
        {
          "internalType": "bytes32",
          "name": "role",
          "type": "bytes32"
        }
      ],
      "name": "getRoleAdmin",
      "outputs": [
        {
          "internalType": "bytes32",
          "name": "",
          "type": "bytes32"
        }
      ],
      "stateMutability": "view",
      "type": "function"
    },
    {
      "inputs": [
        {
          "internalType": "address",
          "name": "newAdmin",
          "type": "address"
        }
      ],
      "name": "grantAdminRole",
      "outputs": [],
      "stateMutability": "nonpayable",
      "type": "function"
    },
    {
      "inputs": [
        {
          "internalType": "bytes32",
          "name": "role",
          "type": "bytes32"
        },
        {
          "internalType": "address",
          "name": "account",
          "type": "address"
        }
      ],
      "name": "grantRole",
      "outputs": [],
      "stateMutability": "nonpayable",
      "type": "function"
    },
    {
      "inputs": [
        {
          "internalType": "bytes32",
          "name": "role",
          "type": "bytes32"
        },
        {
          "internalType": "address",
          "name": "account",
          "type": "address"
        }
      ],
      "name": "hasRole",
      "outputs": [
        {
          "internalType": "bool",
          "name": "",
          "type": "bool"
        }
      ],
      "stateMutability": "view",
      "type": "function"
    },
    {
      "inputs": [
        {
          "internalType": "uint256",
          "name": "",
          "type": "uint256"
        }
      ],
      "name": "publisherAddresses",
      "outputs": [
        {
          "internalType": "address",
          "name": "",
          "type": "address"
        }
      ],
      "stateMutability": "view",
      "type": "function"
    },
    {
      "inputs": [
        {
          "internalType": "address",
          "name": "",
          "type": "address"
        },
        {
          "internalType": "uint256",
          "name": "",
          "type": "uint256"
        }
      ],
      "name": "publisherArticles",
      "outputs": [
        {
          "internalType": "uint256",
          "name": "",
          "type": "uint256"
        }
      ],
      "stateMutability": "view",
      "type": "function"
    },
    {
      "inputs": [
        {
          "internalType": "address",
          "name": "",
          "type": "address"
        }
      ],
      "name": "publishers",
      "outputs": [
        {
          "internalType": "address",
          "name": "publisherID",
          "type": "address"
        },
        {
          "internalType": "uint256",
          "name": "registrationTimestamp",
          "type": "uint256"
        },
        {
          "internalType": "int256",
          "name": "reputationScore",
          "type": "int256"
        },
        {
          "internalType": "bool",
          "name": "isRegistered",
          "type": "bool"
        }
      ],
      "stateMutability": "view",
      "type": "function"
    },
    {
      "inputs": [
        {
          "internalType": "address",
          "name": "",
          "type": "address"
        }
      ],
      "name": "readers",
      "outputs": [
        {
          "internalType": "address",
          "name": "readerID",
          "type": "address"
        }
      ],
      "stateMutability": "view",
      "type": "function"
    },
    {
      "inputs": [
        {
          "internalType": "address",
          "name": "publisherAddress",
          "type": "address"
        }
      ],
      "name": "registerPublisher",
      "outputs": [],
      "stateMutability": "nonpayable",
      "type": "function"
    },
    {
      "inputs": [
        {
          "internalType": "bytes32",
          "name": "role",
          "type": "bytes32"
        },
        {
          "internalType": "address",
          "name": "callerConfirmation",
          "type": "address"
        }
      ],
      "name": "renounceRole",
      "outputs": [],
      "stateMutability": "nonpayable",
      "type": "function"
    },
    {
      "inputs": [
        {
          "internalType": "bytes32",
          "name": "role",
          "type": "bytes32"
        },
        {
          "internalType": "address",
          "name": "account",
          "type": "address"
        }
      ],
      "name": "revokeRole",
      "outputs": [],
      "stateMutability": "nonpayable",
      "type": "function"
    },
    {
      "inputs": [
        {
          "internalType": "string",
          "name": "title",
          "type": "string"
        },
        {
          "internalType": "string",
          "name": "content",
          "type": "string"
        }
      ],
      "name": "submitArticle",
      "outputs": [],
      "stateMutability": "nonpayable",
      "type": "function"
    },
    {
      "inputs": [
        {
          "internalType": "bytes4",
          "name": "interfaceId",
          "type": "bytes4"
        }
      ],
      "name": "supportsInterface",
      "outputs": [
        {
          "internalType": "bool",
          "name": "",
          "type": "bool"
        }
      ],
      "stateMutability": "view",
      "type": "function"
    },
    {
      "inputs": [
        {
          "internalType": "uint256",
          "name": "articleId",
          "type": "uint256"
        },
        {
          "internalType": "string",
          "name": "newTitle",
          "type": "string"
        },
        {
          "internalType": "string",
          "name": "newContent",
          "type": "string"
        }
      ],
      "name": "updateArticle",
      "outputs": [],
      "stateMutability": "nonpayable",
      "type": "function"
    }
  ],
  "bytecode": "0x60806040523480156200001157600080fd5b50620000276000801b336200006160201b60201c565b506200005a7f0ac90c257048ef1c3e387c26d4a99bde06894efbcbff862dc1885c3a9319308a336200006160201b60201c565b50620001d6565b60006200007583836200016460201b60201c565b6200015957600160008085815260200190815260200160002060000160008473ffffffffffffffffffffffffffffffffffffffff1673ffffffffffffffffffffffffffffffffffffffff16815260200190815260200160002060006101000a81548160ff021916908315150217905550620000f5620001ce60201b60201c565b73ffffffffffffffffffffffffffffffffffffffff168273ffffffffffffffffffffffffffffffffffffffff16847f2f8788117e7eff1d82e926ec794901d17c78024a50270940304540a733656f0d60405160405180910390a4600190506200015e565b600090505b92915050565b600080600084815260200190815260200160002060000160008373ffffffffffffffffffffffffffffffffffffffff1673ffffffffffffffffffffffffffffffffffffffff16815260200190815260200160002060009054906101000a900460ff16905092915050565b600033905090565b613ba480620001e66000396000f3fe608060405234801561001057600080fd5b50600436106101585760003560e01c806388670412116100c3578063c634b78e1161007c578063c634b78e1461043c578063d547741f14610458578063d8f4b6fd14610474578063d98fabc114610492578063edcfafe6146104c2578063ffcd40f3146104f657610158565b8063886704121461034257806391d148541461035e5780639201de551461038e578063a217fddf146103be578063abb7ae5d146103dc578063bd85d8671461040c57610158565b80633336acd3116101155780633336acd31461025857806336568abe146102745780634bab5a46146102905780634c96f281146102c457806351e59ffb146102e257806373e4312d1461031257610158565b806301ffc9a71461015d5780630a4d85cd1461018d5780631df550f7146101c0578063248a9ca3146101f057806325671a2f146102205780632f2ff15d1461023c575b600080fd5b610177600480360381019061017291906126fc565b610526565b6040516101849190612744565b60405180910390f35b6101a760048036038101906101a291906127bd565b6105a0565b6040516101b7949392919061282b565b60405180910390f35b6101da60048036038101906101d5919061289c565b6105fd565b6040516101e791906128c9565b60405180910390f35b61020a6004803603810190610205919061291a565b61063c565b6040516102179190612956565b60405180910390f35b61023a60048036038101906102359190612ab7565b61065b565b005b61025660048036038101906102519190612b2f565b610ab7565b005b610272600480360381019061026d91906127bd565b610ad9565b005b61028e60048036038101906102899190612b2f565b610d3d565b005b6102aa60048036038101906102a5919061289c565b610db8565b6040516102bb959493929190612bee565b60405180910390f35b6102cc610fa6565b6040516102d99190612d96565b60405180910390f35b6102fc60048036038101906102f791906127bd565b611284565b60405161030991906128c9565b60405180910390f35b61032c600480360381019061032791906127bd565b6112c2565b6040516103399190612f48565b60405180910390f35b61035c60048036038101906103579190612f6a565b611741565b005b61037860048036038101906103739190612b2f565b611af3565b6040516103859190612744565b60405180910390f35b6103a860048036038101906103a3919061291a565b611b5d565b6040516103b59190612ff5565b60405180910390f35b6103c6611b86565b6040516103d39190612956565b60405180910390f35b6103f660048036038101906103f1919061289c565b611b8d565b6040516104039190613017565b60405180910390f35b6104266004803603810190610421919061289c565b611ba5565b60405161043391906130b6565b60405180910390f35b610456600480360381019061045191906127bd565b611e41565b005b610472600480360381019061046d9190612b2f565b611e5f565b005b61047c611e81565b6040516104899190612956565b60405180910390f35b6104ac60048036038101906104a791906130d8565b611ea5565b6040516104b99190613017565b60405180910390f35b6104dc60048036038101906104d7919061289c565b611ed6565b6040516104ed959493929190612bee565b60405180910390f35b610510600480360381019061050b919061289c565b6120c4565b60405161051d919061323d565b60405180910390f35b60007f7965db0b000000000000000000000000000000000000000000000000000000007bffffffffffffffffffffffffffffffffffffffffffffffffffffffff1916827bffffffffffffffffffffffffffffffffffffffffffffffffffffffff19161480610599575061059882612313565b5b9050919050565b60046020528060005260406000206000915090508060000160009054906101000a900473ffffffffffffffffffffffffffffffffffffffff16908060010154908060020154908060030160009054906101000a900460ff16905084565b6001818154811061060d57600080fd5b906000526020600020016000915054906101000a900473ffffffffffffffffffffffffffffffffffffffff1681565b6000806000838152602001908152602001600020600101549050919050565b6106857f0ac90c257048ef1c3e387c26d4a99bde06894efbcbff862dc1885c3a9319308a33611af3565b6106c4576040517f08c379a00000000000000000000000000000000000000000000000000000000081526004016106bb906132ab565b60405180910390fd5b6000825111610708576040517f08c379a00000000000000000000000000000000000000000000000000000000081526004016106ff90613317565b60405180910390fd5b600081511161074c576040517f08c379a000000000000000000000000000000000000000000000000000000000815260040161074390613383565b60405180910390fd5b6007600081548092919061075f906133d2565b91905055506000600754905060008383604051602001610780929190613456565b604051602081830303815290604052805190602001209050836002600084815260200190815260200160002060000190816107bb9190613686565b50826002600084815260200190815260200160002060010190816107df9190613686565b50426002600084815260200190815260200160002060020181905550336002600084815260200190815260200160002060030160006101000a81548173ffffffffffffffffffffffffffffffffffffffff021916908373ffffffffffffffffffffffffffffffffffffffff16021790555061085981611b5d565b60026000848152602001908152602001600020600401908161087b9190613686565b50600060019050604051806080016040528082815260200161089c84611b5d565b81526020013373ffffffffffffffffffffffffffffffffffffffff168152602001428152506002600085815260200190815260200160002060050160008381526020019081526020016000206000820151816000015560208201518160010190816109079190613686565b5060408201518160020160006101000a81548173ffffffffffffffffffffffffffffffffffffffff021916908373ffffffffffffffffffffffffffffffffffffffff16021790555060608201518160030155905050600560003373ffffffffffffffffffffffffffffffffffffffff1673ffffffffffffffffffffffffffffffffffffffff1681526020019081526020016000208390806001815401808255809150506001900390600052602060002001600090919091909150556040518060a001604052808681526020018581526020014281526020013373ffffffffffffffffffffffffffffffffffffffff168152602001610a0484611b5d565b815250600360008581526020019081526020016000206000820151816000019081610a2f9190613686565b506020820151816001019081610a459190613686565b506040820151816002015560608201518160030160006101000a81548173ffffffffffffffffffffffffffffffffffffffff021916908373ffffffffffffffffffffffffffffffffffffffff1602179055506080820151816004019081610aac9190613686565b509050505050505050565b610ac08261063c565b610ac98161237d565b610ad38383612391565b50505050565b610ae66000801b33611af3565b610b25576040517f08c379a0000000000000000000000000000000000000000000000000000000008152600401610b1c906137a4565b60405180910390fd5b600460008273ffffffffffffffffffffffffffffffffffffffff1673ffffffffffffffffffffffffffffffffffffffff16815260200190815260200160002060030160009054906101000a900460ff1615610bb5576040517f08c379a0000000000000000000000000000000000000000000000000000000008152600401610bac90613810565b60405180910390fd5b60405180608001604052808273ffffffffffffffffffffffffffffffffffffffff1681526020014281526020016000815260200160011515815250600460008373ffffffffffffffffffffffffffffffffffffffff1673ffffffffffffffffffffffffffffffffffffffff16815260200190815260200160002060008201518160000160006101000a81548173ffffffffffffffffffffffffffffffffffffffff021916908373ffffffffffffffffffffffffffffffffffffffff160217905550602082015181600101556040820151816002015560608201518160030160006101000a81548160ff0219169083151502179055509050506001819080600181540180825580915050600190039060005260206000200160009091909190916101000a81548173ffffffffffffffffffffffffffffffffffffffff021916908373ffffffffffffffffffffffffffffffffffffffff160217905550610d3a7f0ac90c257048ef1c3e387c26d4a99bde06894efbcbff862dc1885c3a9319308a82610ab7565b50565b610d45612482565b73ffffffffffffffffffffffffffffffffffffffff168173ffffffffffffffffffffffffffffffffffffffff1614610da9576040517f6697b23200000000000000000000000000000000000000000000000000000000815260040160405180910390fd5b610db3828261248a565b505050565b6003602052806000526040600020600091509050806000018054610ddb906134a9565b80601f0160208091040260200160405190810160405280929190818152602001828054610e07906134a9565b8015610e545780601f10610e2957610100808354040283529160200191610e54565b820191906000526020600020905b815481529060010190602001808311610e3757829003601f168201915b505050505090806001018054610e69906134a9565b80601f0160208091040260200160405190810160405280929190818152602001828054610e95906134a9565b8015610ee25780601f10610eb757610100808354040283529160200191610ee2565b820191906000526020600020905b815481529060010190602001808311610ec557829003601f168201915b5050505050908060020154908060030160009054906101000a900473ffffffffffffffffffffffffffffffffffffffff1690806004018054610f23906134a9565b80601f0160208091040260200160405190810160405280929190818152602001828054610f4f906134a9565b8015610f9c5780601f10610f7157610100808354040283529160200191610f9c565b820191906000526020600020905b815481529060010190602001808311610f7f57829003601f168201915b5050505050905085565b60606000805b60018054905081101561106e57600060018281548110610fcf57610fce613830565b5b9060005260206000200160009054906101000a900473ffffffffffffffffffffffffffffffffffffffff169050600460008273ffffffffffffffffffffffffffffffffffffffff1673ffffffffffffffffffffffffffffffffffffffff16815260200190815260200160002060030160009054906101000a900460ff161561106057828061105c906133d2565b9350505b508080600101915050610fac565b5060008167ffffffffffffffff81111561108b5761108a61298c565b5b6040519080825280602002602001820160405280156110c457816020015b6110b16125cd565b8152602001906001900390816110a95790505b5090506000805b60018054905081101561127a576000600182815481106110ee576110ed613830565b5b9060005260206000200160009054906101000a900473ffffffffffffffffffffffffffffffffffffffff169050600460008273ffffffffffffffffffffffffffffffffffffffff1673ffffffffffffffffffffffffffffffffffffffff16815260200190815260200160002060030160009054906101000a900460ff161561126c57600460008273ffffffffffffffffffffffffffffffffffffffff1673ffffffffffffffffffffffffffffffffffffffff1681526020019081526020016000206040518060800160405290816000820160009054906101000a900473ffffffffffffffffffffffffffffffffffffffff1673ffffffffffffffffffffffffffffffffffffffff1673ffffffffffffffffffffffffffffffffffffffff16815260200160018201548152602001600282015481526020016003820160009054906101000a900460ff16151515158152505084848151811061125257611251613830565b5b60200260200101819052508280611268906133d2565b9350505b5080806001019150506110cb565b5081935050505090565b60066020528060005260406000206000915090508060000160009054906101000a900473ffffffffffffffffffffffffffffffffffffffff16905081565b6060600460008373ffffffffffffffffffffffffffffffffffffffff1673ffffffffffffffffffffffffffffffffffffffff16815260200190815260200160002060030160009054906101000a900460ff16611353576040517f08c379a000000000000000000000000000000000000000000000000000000000815260040161134a906138ab565b60405180910390fd5b6000600560008473ffffffffffffffffffffffffffffffffffffffff1673ffffffffffffffffffffffffffffffffffffffff1681526020019081526020016000208054806020026020016040519081016040528092919081815260200182805480156113de57602002820191906000526020600020905b8154815260200190600101908083116113ca575b505050505090506000815167ffffffffffffffff8111156114025761140161298c565b5b60405190808252806020026020018201604052801561143b57816020015b61142861260d565b8152602001906001900390816114205790505b50905060005b82518110156117365760006002600085848151811061146357611462613830565b5b6020026020010151815260200190815260200160002060020154036114bd576040517f08c379a00000000000000000000000000000000000000000000000000000000081526004016114b490613917565b60405180910390fd5b600360008483815181106114d4576114d3613830565b5b602002602001015181526020019081526020016000206040518060a0016040529081600082018054611505906134a9565b80601f0160208091040260200160405190810160405280929190818152602001828054611531906134a9565b801561157e5780601f106115535761010080835404028352916020019161157e565b820191906000526020600020905b81548152906001019060200180831161156157829003601f168201915b50505050508152602001600182018054611597906134a9565b80601f01602080910402602001604051908101604052809291908181526020018280546115c3906134a9565b80156116105780601f106115e557610100808354040283529160200191611610565b820191906000526020600020905b8154815290600101906020018083116115f357829003601f168201915b50505050508152602001600282015481526020016003820160009054906101000a900473ffffffffffffffffffffffffffffffffffffffff1673ffffffffffffffffffffffffffffffffffffffff1673ffffffffffffffffffffffffffffffffffffffff168152602001600482018054611689906134a9565b80601f01602080910402602001604051908101604052809291908181526020018280546116b5906134a9565b80156117025780601f106116d757610100808354040283529160200191611702565b820191906000526020600020905b8154815290600101906020018083116116e557829003601f168201915b50505050508152505082828151811061171e5761171d613830565b5b60200260200101819052508080600101915050611441565b508092505050919050565b61176b7f0ac90c257048ef1c3e387c26d4a99bde06894efbcbff862dc1885c3a9319308a33611af3565b6117aa576040517f08c379a00000000000000000000000000000000000000000000000000000000081526004016117a1906132ab565b60405180910390fd5b60006002600085815260200190815260200160002060030160009054906101000a900473ffffffffffffffffffffffffffffffffffffffff169050600060026000868152602001908152602001600020600201540361183e576040517f08c379a000000000000000000000000000000000000000000000000000000000815260040161183590613917565b60405180910390fd5b8073ffffffffffffffffffffffffffffffffffffffff163373ffffffffffffffffffffffffffffffffffffffff16146118ac576040517f08c379a00000000000000000000000000000000000000000000000000000000081526004016118a3906139a9565b60405180910390fd5b60008351116118f0576040517f08c379a00000000000000000000000000000000000000000000000000000000081526004016118e790613a15565b60405180910390fd5b6000825111611934576040517f08c379a000000000000000000000000000000000000000000000000000000000815260040161192b90613a81565b60405180910390fd5b60008383604051602001611949929190613456565b604051602081830303815290604052805190602001209050836002600087815260200190815260200160002060000190816119849190613686565b50826002600087815260200190815260200160002060010190816119a89190613686565b506119b281611b5d565b6002600087815260200190815260200160002060040190816119d49190613686565b506000600160086000888152602001908152602001600020546119f79190613aa1565b90506040518060800160405280828152602001611a1384611b5d565b81526020013373ffffffffffffffffffffffffffffffffffffffff16815260200142815250600260008881526020019081526020016000206005016000838152602001908152602001600020600082015181600001556020820151816001019081611a7e9190613686565b5060408201518160020160006101000a81548173ffffffffffffffffffffffffffffffffffffffff021916908373ffffffffffffffffffffffffffffffffffffffff16021790555060608201518160030155905050806008600088815260200190815260200160002081905550505050505050565b600080600084815260200190815260200160002060000160008373ffffffffffffffffffffffffffffffffffffffff1673ffffffffffffffffffffffffffffffffffffffff16815260200190815260200160002060009054906101000a900460ff16905092915050565b606081604051602001611b709190613af6565b6040516020818303038152906040529050919050565b6000801b81565b60086020528060005260406000206000915090505481565b611bad61260d565b6000600360008481526020019081526020016000206002015403611c06576040517f08c379a0000000000000000000000000000000000000000000000000000000008152600401611bfd90613917565b60405180910390fd5b600360008381526020019081526020016000206040518060a0016040529081600082018054611c34906134a9565b80601f0160208091040260200160405190810160405280929190818152602001828054611c60906134a9565b8015611cad5780601f10611c8257610100808354040283529160200191611cad565b820191906000526020600020905b815481529060010190602001808311611c9057829003601f168201915b50505050508152602001600182018054611cc6906134a9565b80601f0160208091040260200160405190810160405280929190818152602001828054611cf2906134a9565b8015611d3f5780601f10611d1457610100808354040283529160200191611d3f565b820191906000526020600020905b815481529060010190602001808311611d2257829003601f168201915b50505050508152602001600282015481526020016003820160009054906101000a900473ffffffffffffffffffffffffffffffffffffffff1673ffffffffffffffffffffffffffffffffffffffff1673ffffffffffffffffffffffffffffffffffffffff168152602001600482018054611db8906134a9565b80601f0160208091040260200160405190810160405280929190818152602001828054611de4906134a9565b8015611e315780601f10611e0657610100808354040283529160200191611e31565b820191906000526020600020905b815481529060010190602001808311611e1457829003601f168201915b5050505050815250509050919050565b6000801b611e4e8161237d565b611e5b6000801b83610ab7565b5050565b611e688261063c565b611e718161237d565b611e7b838361248a565b50505050565b7f0ac90c257048ef1c3e387c26d4a99bde06894efbcbff862dc1885c3a9319308a81565b60056020528160005260406000208181548110611ec157600080fd5b90600052602060002001600091509150505481565b6002602052806000526040600020600091509050806000018054611ef9906134a9565b80601f0160208091040260200160405190810160405280929190818152602001828054611f25906134a9565b8015611f725780601f10611f4757610100808354040283529160200191611f72565b820191906000526020600020905b815481529060010190602001808311611f5557829003601f168201915b505050505090806001018054611f87906134a9565b80601f0160208091040260200160405190810160405280929190818152602001828054611fb3906134a9565b80156120005780601f10611fd557610100808354040283529160200191612000565b820191906000526020600020905b815481529060010190602001808311611fe357829003601f168201915b5050505050908060020154908060030160009054906101000a900473ffffffffffffffffffffffffffffffffffffffff1690806004018054612041906134a9565b80601f016020809104026020016040519081016040528092919081815260200182805461206d906134a9565b80156120ba5780601f1061208f576101008083540402835291602001916120ba565b820191906000526020600020905b81548152906001019060200180831161209d57829003601f168201915b5050505050905085565b6060600060026000848152602001908152602001600020600201540361211f576040517f08c379a000000000000000000000000000000000000000000000000000000000815260040161211690613917565b60405180910390fd5b60006008600084815260200190815260200160002054905060008167ffffffffffffffff8111156121535761215261298c565b5b60405190808252806020026020018201604052801561218c57816020015b612179612652565b8152602001906001900390816121715790505b5090506000600190505b82811161230857600260008681526020019081526020016000206005016000828152602001908152602001600020604051806080016040529081600082015481526020016001820180546121e9906134a9565b80601f0160208091040260200160405190810160405280929190818152602001828054612215906134a9565b80156122625780601f1061223757610100808354040283529160200191612262565b820191906000526020600020905b81548152906001019060200180831161224557829003601f168201915b505050505081526020016002820160009054906101000a900473ffffffffffffffffffffffffffffffffffffffff1673ffffffffffffffffffffffffffffffffffffffff1673ffffffffffffffffffffffffffffffffffffffff168152602001600382015481525050826001836122d99190613b11565b815181106122ea576122e9613830565b5b60200260200101819052508080612300906133d2565b915050612196565b508092505050919050565b60007f01ffc9a7000000000000000000000000000000000000000000000000000000007bffffffffffffffffffffffffffffffffffffffffffffffffffffffff1916827bffffffffffffffffffffffffffffffffffffffffffffffffffffffff1916149050919050565b61238e81612389612482565b61257c565b50565b600061239d8383611af3565b61247757600160008085815260200190815260200160002060000160008473ffffffffffffffffffffffffffffffffffffffff1673ffffffffffffffffffffffffffffffffffffffff16815260200190815260200160002060006101000a81548160ff021916908315150217905550612414612482565b73ffffffffffffffffffffffffffffffffffffffff168273ffffffffffffffffffffffffffffffffffffffff16847f2f8788117e7eff1d82e926ec794901d17c78024a50270940304540a733656f0d60405160405180910390a46001905061247c565b600090505b92915050565b600033905090565b60006124968383611af3565b1561257157600080600085815260200190815260200160002060000160008473ffffffffffffffffffffffffffffffffffffffff1673ffffffffffffffffffffffffffffffffffffffff16815260200190815260200160002060006101000a81548160ff02191690831515021790555061250e612482565b73ffffffffffffffffffffffffffffffffffffffff168273ffffffffffffffffffffffffffffffffffffffff16847ff6391f5c32d9c69d2a47ea670b442974b53935d1edc7fd64eb21e047a839171b60405160405180910390a460019050612576565b600090505b92915050565b6125868282611af3565b6125c95780826040517fe2517d3f0000000000000000000000000000000000000000000000000000000081526004016125c0929190613b45565b60405180910390fd5b5050565b6040518060800160405280600073ffffffffffffffffffffffffffffffffffffffff16815260200160008152602001600081526020016000151581525090565b6040518060a00160405280606081526020016060815260200160008152602001600073ffffffffffffffffffffffffffffffffffffffff168152602001606081525090565b60405180608001604052806000815260200160608152602001600073ffffffffffffffffffffffffffffffffffffffff168152602001600081525090565b6000604051905090565b600080fd5b600080fd5b60007fffffffff0000000000000000000000000000000000000000000000000000000082169050919050565b6126d9816126a4565b81146126e457600080fd5b50565b6000813590506126f6816126d0565b92915050565b6000602082840312156127125761271161269a565b5b6000612720848285016126e7565b91505092915050565b60008115159050919050565b61273e81612729565b82525050565b60006020820190506127596000830184612735565b92915050565b600073ffffffffffffffffffffffffffffffffffffffff82169050919050565b600061278a8261275f565b9050919050565b61279a8161277f565b81146127a557600080fd5b50565b6000813590506127b781612791565b92915050565b6000602082840312156127d3576127d261269a565b5b60006127e1848285016127a8565b91505092915050565b6127f38161277f565b82525050565b6000819050919050565b61280c816127f9565b82525050565b6000819050919050565b61282581612812565b82525050565b600060808201905061284060008301876127ea565b61284d6020830186612803565b61285a604083018561281c565b6128676060830184612735565b95945050505050565b612879816127f9565b811461288457600080fd5b50565b60008135905061289681612870565b92915050565b6000602082840312156128b2576128b161269a565b5b60006128c084828501612887565b91505092915050565b60006020820190506128de60008301846127ea565b92915050565b6000819050919050565b6128f7816128e4565b811461290257600080fd5b50565b600081359050612914816128ee565b92915050565b6000602082840312156129305761292f61269a565b5b600061293e84828501612905565b91505092915050565b612950816128e4565b82525050565b600060208201905061296b6000830184612947565b92915050565b600080fd5b600080fd5b6000601f19601f8301169050919050565b7f4e487b7100000000000000000000000000000000000000000000000000000000600052604160045260246000fd5b6129c48261297b565b810181811067ffffffffffffffff821117156129e3576129e261298c565b5b80604052505050565b60006129f6612690565b9050612a0282826129bb565b919050565b600067ffffffffffffffff821115612a2257612a2161298c565b5b612a2b8261297b565b9050602081019050919050565b82818337600083830152505050565b6000612a5a612a5584612a07565b6129ec565b905082815260208101848484011115612a7657612a75612976565b5b612a81848285612a38565b509392505050565b600082601f830112612a9e57612a9d612971565b5b8135612aae848260208601612a47565b91505092915050565b60008060408385031215612ace57612acd61269a565b5b600083013567ffffffffffffffff811115612aec57612aeb61269f565b5b612af885828601612a89565b925050602083013567ffffffffffffffff811115612b1957612b1861269f565b5b612b2585828601612a89565b9150509250929050565b60008060408385031215612b4657612b4561269a565b5b6000612b5485828601612905565b9250506020612b65858286016127a8565b9150509250929050565b600081519050919050565b600082825260208201905092915050565b60005b83811015612ba9578082015181840152602081019050612b8e565b60008484015250505050565b6000612bc082612b6f565b612bca8185612b7a565b9350612bda818560208601612b8b565b612be38161297b565b840191505092915050565b600060a0820190508181036000830152612c088188612bb5565b90508181036020830152612c1c8187612bb5565b9050612c2b6040830186612803565b612c3860608301856127ea565b8181036080830152612c4a8184612bb5565b90509695505050505050565b600081519050919050565b600082825260208201905092915050565b6000819050602082019050919050565b612c8b8161277f565b82525050565b612c9a816127f9565b82525050565b612ca981612812565b82525050565b612cb881612729565b82525050565b608082016000820151612cd46000850182612c82565b506020820151612ce76020850182612c91565b506040820151612cfa6040850182612ca0565b506060820151612d0d6060850182612caf565b50505050565b6000612d1f8383612cbe565b60808301905092915050565b6000602082019050919050565b6000612d4382612c56565b612d4d8185612c61565b9350612d5883612c72565b8060005b83811015612d89578151612d708882612d13565b9750612d7b83612d2b565b925050600181019050612d5c565b5085935050505092915050565b60006020820190508181036000830152612db08184612d38565b905092915050565b600081519050919050565b600082825260208201905092915050565b6000819050602082019050919050565b600082825260208201905092915050565b6000612e0082612b6f565b612e0a8185612de4565b9350612e1a818560208601612b8b565b612e238161297b565b840191505092915050565b600060a0830160008301518482036000860152612e4b8282612df5565b91505060208301518482036020860152612e658282612df5565b9150506040830151612e7a6040860182612c91565b506060830151612e8d6060860182612c82565b5060808301518482036080860152612ea58282612df5565b9150508091505092915050565b6000612ebe8383612e2e565b905092915050565b6000602082019050919050565b6000612ede82612db8565b612ee88185612dc3565b935083602082028501612efa85612dd4565b8060005b85811015612f365784840389528151612f178582612eb2565b9450612f2283612ec6565b925060208a01995050600181019050612efe565b50829750879550505050505092915050565b60006020820190508181036000830152612f628184612ed3565b905092915050565b600080600060608486031215612f8357612f8261269a565b5b6000612f9186828701612887565b935050602084013567ffffffffffffffff811115612fb257612fb161269f565b5b612fbe86828701612a89565b925050604084013567ffffffffffffffff811115612fdf57612fde61269f565b5b612feb86828701612a89565b9150509250925092565b6000602082019050818103600083015261300f8184612bb5565b905092915050565b600060208201905061302c6000830184612803565b92915050565b600060a083016000830151848203600086015261304f8282612df5565b915050602083015184820360208601526130698282612df5565b915050604083015161307e6040860182612c91565b5060608301516130916060860182612c82565b50608083015184820360808601526130a98282612df5565b9150508091505092915050565b600060208201905081810360008301526130d08184613032565b905092915050565b600080604083850312156130ef576130ee61269a565b5b60006130fd858286016127a8565b925050602061310e85828601612887565b9150509250929050565b600081519050919050565b600082825260208201905092915050565b6000819050602082019050919050565b600060808301600083015161315c6000860182612c91565b50602083015184820360208601526131748282612df5565b91505060408301516131896040860182612c82565b50606083015161319c6060860182612c91565b508091505092915050565b60006131b38383613144565b905092915050565b6000602082019050919050565b60006131d382613118565b6131dd8185613123565b9350836020820285016131ef85613134565b8060005b8581101561322b578484038952815161320c85826131a7565b9450613217836131bb565b925060208a019950506001810190506131f3565b50829750879550505050505092915050565b6000602082019050818103600083015261325781846131c8565b905092915050565b7f43616c6c6572206973206e6f742061207075626c697368657200000000000000600082015250565b6000613295601983612b7a565b91506132a08261325f565b602082019050919050565b600060208201905081810360008301526132c481613288565b9050919050565b7f5469746c652063616e6e6f7420626520656d7074790000000000000000000000600082015250565b6000613301601583612b7a565b915061330c826132cb565b602082019050919050565b60006020820190508181036000830152613330816132f4565b9050919050565b7f436f6e74656e742063616e6e6f7420626520656d707479000000000000000000600082015250565b600061336d601783612b7a565b915061337882613337565b602082019050919050565b6000602082019050818103600083015261339c81613360565b9050919050565b7f4e487b7100000000000000000000000000000000000000000000000000000000600052601160045260246000fd5b60006133dd826127f9565b91507fffffffffffffffffffffffffffffffffffffffffffffffffffffffffffffffff820361340f5761340e6133a3565b5b600182019050919050565b600081905092915050565b600061343082612b6f565b61343a818561341a565b935061344a818560208601612b8b565b80840191505092915050565b60006134628285613425565b915061346e8284613425565b91508190509392505050565b7f4e487b7100000000000000000000000000000000000000000000000000000000600052602260045260246000fd5b600060028204905060018216806134c157607f821691505b6020821081036134d4576134d361347a565b5b50919050565b60008190508160005260206000209050919050565b60006020601f8301049050919050565b600082821b905092915050565b60006008830261353c7fffffffffffffffffffffffffffffffffffffffffffffffffffffffffffffffff826134ff565b61354686836134ff565b95508019841693508086168417925050509392505050565b6000819050919050565b600061358361357e613579846127f9565b61355e565b6127f9565b9050919050565b6000819050919050565b61359d83613568565b6135b16135a98261358a565b84845461350c565b825550505050565b600090565b6135c66135b9565b6135d1818484613594565b505050565b5b818110156135f5576135ea6000826135be565b6001810190506135d7565b5050565b601f82111561363a5761360b816134da565b613614846134ef565b81016020851015613623578190505b61363761362f856134ef565b8301826135d6565b50505b505050565b600082821c905092915050565b600061365d6000198460080261363f565b1980831691505092915050565b6000613676838361364c565b9150826002028217905092915050565b61368f82612b6f565b67ffffffffffffffff8111156136a8576136a761298c565b5b6136b282546134a9565b6136bd8282856135f9565b600060209050601f8311600181146136f057600084156136de578287015190505b6136e8858261366a565b865550613750565b601f1984166136fe866134da565b60005b8281101561372657848901518255600182019150602085019450602081019050613701565b86831015613743578489015161373f601f89168261364c565b8355505b6001600288020188555050505b505050505050565b7f43616c6c6572206973206e6f7420616e2061646d696e00000000000000000000600082015250565b600061378e601683612b7a565b915061379982613758565b602082019050919050565b600060208201905081810360008301526137bd81613781565b9050919050565b7f5075626c697368657220616c7265616479207265676973746572656400000000600082015250565b60006137fa601c83612b7a565b9150613805826137c4565b602082019050919050565b60006020820190508181036000830152613829816137ed565b9050919050565b7f4e487b7100000000000000000000000000000000000000000000000000000000600052603260045260246000fd5b7f5075626c6973686572206e6f7420726567697374657265640000000000000000600082015250565b6000613895601883612b7a565b91506138a08261385f565b602082019050919050565b600060208201905081810360008301526138c481613888565b9050919050565b7f41727469636c6520646f6573206e6f7420657869737400000000000000000000600082015250565b6000613901601683612b7a565b915061390c826138cb565b602082019050919050565b60006020820190508181036000830152613930816138f4565b9050919050565b7f4f6e6c7920746865206f726967696e616c207075626c69736865722063616e2060008201527f7570646174652e00000000000000000000000000000000000000000000000000602082015250565b6000613993602783612b7a565b915061399e82613937565b604082019050919050565b600060208201905081810360008301526139c281613986565b9050919050565b7f4e6577207469746c652063616e6e6f7420626520656d70747900000000000000600082015250565b60006139ff601983612b7a565b9150613a0a826139c9565b602082019050919050565b60006020820190508181036000830152613a2e816139f2565b9050919050565b7f4e657720636f6e74656e742063616e6e6f7420626520656d7074790000000000600082015250565b6000613a6b601b83612b7a565b9150613a7682613a35565b602082019050919050565b60006020820190508181036000830152613a9a81613a5e565b9050919050565b6000613aac826127f9565b9150613ab7836127f9565b9250828201905080821115613acf57613ace6133a3565b5b92915050565b6000819050919050565b613af0613aeb826128e4565b613ad5565b82525050565b6000613b028284613adf565b60208201915081905092915050565b6000613b1c826127f9565b9150613b27836127f9565b9250828203905081811115613b3f57613b3e6133a3565b5b92915050565b6000604082019050613b5a60008301856127ea565b613b676020830184612947565b939250505056fea264697066735822122078603f55ca165cb64c9c5cca824dc46c765ab235758f9a2883aa7d9499e3ab3564736f6c63430008180033",
  "linkReferences": {},
  "deployedLinkReferences": {}
}