{
  "_format": "hh-sol-artifact-1",
  "contractName": "NewsPlatform",
  "sourceName": "contracts/NewsPlatform.sol",
  "abi": [
    {
      "inputs": [],
      "stateMutability": "nonpayable",
      "type": "constructor"
    },
    {
      "inputs": [],
      "name": "AccessControlBadConfirmation",
      "type": "error"
    },
    {
      "inputs": [
        {
          "internalType": "address",
          "name": "account",
          "type": "address"
        },
        {
          "internalType": "bytes32",
          "name": "neededRole",
          "type": "bytes32"
        }
      ],
      "name": "AccessControlUnauthorizedAccount",
      "type": "error"
    },
    {
      "anonymous": false,
      "inputs": [
        {
          "indexed": true,
          "internalType": "bytes32",
          "name": "role",
          "type": "bytes32"
        },
        {
          "indexed": true,
          "internalType": "bytes32",
          "name": "previousAdminRole",
          "type": "bytes32"
        },
        {
          "indexed": true,
          "internalType": "bytes32",
          "name": "newAdminRole",
          "type": "bytes32"
        }
      ],
      "name": "RoleAdminChanged",
      "type": "event"
    },
    {
      "anonymous": false,
      "inputs": [
        {
          "indexed": true,
          "internalType": "bytes32",
          "name": "role",
          "type": "bytes32"
        },
        {
          "indexed": true,
          "internalType": "address",
          "name": "account",
          "type": "address"
        },
        {
          "indexed": true,
          "internalType": "address",
          "name": "sender",
          "type": "address"
        }
      ],
      "name": "RoleGranted",
      "type": "event"
    },
    {
      "anonymous": false,
      "inputs": [
        {
          "indexed": true,
          "internalType": "bytes32",
          "name": "role",
          "type": "bytes32"
        },
        {
          "indexed": true,
          "internalType": "address",
          "name": "account",
          "type": "address"
        },
        {
          "indexed": true,
          "internalType": "address",
          "name": "sender",
          "type": "address"
        }
      ],
      "name": "RoleRevoked",
      "type": "event"
    },
    {
      "inputs": [],
      "name": "DEFAULT_ADMIN_ROLE",
      "outputs": [
        {
          "internalType": "bytes32",
          "name": "",
          "type": "bytes32"
        }
      ],
      "stateMutability": "view",
      "type": "function"
    },
    {
      "inputs": [],
      "name": "PUBLISHER_ROLE",
      "outputs": [
        {
          "internalType": "bytes32",
          "name": "",
          "type": "bytes32"
        }
      ],
      "stateMutability": "view",
      "type": "function"
    },
    {
      "inputs": [
        {
          "internalType": "uint256",
          "name": "",
          "type": "uint256"
        }
      ],
      "name": "articleVersionCounts",
      "outputs": [
        {
          "internalType": "uint256",
          "name": "",
          "type": "uint256"
        }
      ],
      "stateMutability": "view",
      "type": "function"
    },
    {
      "inputs": [
        {
          "internalType": "uint256",
          "name": "",
          "type": "uint256"
        }
      ],
      "name": "articleVersionless",
      "outputs": [
        {
          "internalType": "string",
          "name": "title",
          "type": "string"
        },
        {
          "internalType": "string",
          "name": "content",
          "type": "string"
        },
        {
          "internalType": "uint256",
          "name": "timestamp",
          "type": "uint256"
        },
        {
          "internalType": "address",
          "name": "publisherID",
          "type": "address"
        },
        {
          "internalType": "string",
          "name": "articleHash",
          "type": "string"
        }
      ],
      "stateMutability": "view",
      "type": "function"
    },
    {
      "inputs": [
        {
          "internalType": "uint256",
          "name": "",
          "type": "uint256"
        }
      ],
      "name": "articles",
      "outputs": [
        {
          "internalType": "string",
          "name": "title",
          "type": "string"
        },
        {
          "internalType": "string",
          "name": "content",
          "type": "string"
        },
        {
          "internalType": "uint256",
          "name": "timestamp",
          "type": "uint256"
        },
        {
          "internalType": "address",
          "name": "publisherID",
          "type": "address"
        },
        {
          "internalType": "string",
          "name": "articleHash",
          "type": "string"
        }
      ],
      "stateMutability": "view",
      "type": "function"
    },
    {
      "inputs": [
        {
          "internalType": "bytes32",
          "name": "_bytes32",
          "type": "bytes32"
        }
      ],
      "name": "bytes32ToString",
      "outputs": [
        {
          "internalType": "string",
          "name": "",
          "type": "string"
        }
      ],
      "stateMutability": "pure",
      "type": "function"
    },
    {
      "inputs": [],
      "name": "getAllArticleIds",
      "outputs": [
        {
          "internalType": "uint256[]",
          "name": "",
          "type": "uint256[]"
        }
      ],
      "stateMutability": "view",
      "type": "function"
    },
    {
      "inputs": [],
      "name": "getAllPublishers",
      "outputs": [
        {
          "components": [
            {
              "internalType": "address",
              "name": "publisherID",
              "type": "address"
            },
            {
              "internalType": "uint256",
              "name": "registrationTimestamp",
              "type": "uint256"
            },
            {
              "internalType": "int256",
              "name": "reputationScore",
              "type": "int256"
            },
            {
              "internalType": "bool",
              "name": "isRegistered",
              "type": "bool"
            }
          ],
          "internalType": "struct NewsPlatform.Publisher[]",
          "name": "",
          "type": "tuple[]"
        }
      ],
      "stateMutability": "view",
      "type": "function"
    },
    {
      "inputs": [
        {
          "internalType": "uint256",
          "name": "articleId",
          "type": "uint256"
        }
      ],
      "name": "getArticle",
      "outputs": [
        {
          "components": [
            {
              "internalType": "string",
              "name": "title",
              "type": "string"
            },
            {
              "internalType": "string",
              "name": "content",
              "type": "string"
            },
            {
              "internalType": "uint256",
              "name": "timestamp",
              "type": "uint256"
            },
            {
              "internalType": "address",
              "name": "publisherID",
              "type": "address"
            },
            {
              "internalType": "string",
              "name": "articleHash",
              "type": "string"
            }
          ],
          "internalType": "struct NewsPlatform.ArticlewithOutVersion",
          "name": "",
          "type": "tuple"
        }
      ],
      "stateMutability": "view",
      "type": "function"
    },
    {
      "inputs": [
        {
          "internalType": "uint256",
          "name": "articleId",
          "type": "uint256"
        }
      ],
      "name": "getArticleHistory",
      "outputs": [
        {
          "components": [
            {
              "internalType": "uint256",
              "name": "versionNumber",
              "type": "uint256"
            },
            {
              "internalType": "string",
              "name": "articleHash",
              "type": "string"
            },
            {
              "internalType": "address",
              "name": "editorID",
              "type": "address"
            },
            {
              "internalType": "uint256",
              "name": "editTimestamp",
              "type": "uint256"
            }
          ],
          "internalType": "struct NewsPlatform.ArticleVersion[]",
          "name": "",
          "type": "tuple[]"
        }
      ],
      "stateMutability": "view",
      "type": "function"
    },
    {
      "inputs": [
        {
          "internalType": "address",
          "name": "publisherAddress",
          "type": "address"
        }
      ],
      "name": "getArticlesByPublisher",
      "outputs": [
        {
          "components": [
            {
              "internalType": "string",
              "name": "title",
              "type": "string"
            },
            {
              "internalType": "string",
              "name": "content",
              "type": "string"
            },
            {
              "internalType": "uint256",
              "name": "timestamp",
              "type": "uint256"
            },
            {
              "internalType": "address",
              "name": "publisherID",
              "type": "address"
            },
            {
              "internalType": "string",
              "name": "articleHash",
              "type": "string"
            }
          ],
          "internalType": "struct NewsPlatform.ArticlewithOutVersion[]",
          "name": "",
          "type": "tuple[]"
        }
      ],
      "stateMutability": "view",
      "type": "function"
    },
    {
      "inputs": [
        {
          "internalType": "bytes32",
          "name": "role",
          "type": "bytes32"
        }
      ],
      "name": "getRoleAdmin",
      "outputs": [
        {
          "internalType": "bytes32",
          "name": "",
          "type": "bytes32"
        }
      ],
      "stateMutability": "view",
      "type": "function"
    },
    {
      "inputs": [
        {
          "internalType": "address",
          "name": "newAdmin",
          "type": "address"
        }
      ],
      "name": "grantAdminRole",
      "outputs": [],
      "stateMutability": "nonpayable",
      "type": "function"
    },
    {
      "inputs": [
        {
          "internalType": "bytes32",
          "name": "role",
          "type": "bytes32"
        },
        {
          "internalType": "address",
          "name": "account",
          "type": "address"
        }
      ],
      "name": "grantRole",
      "outputs": [],
      "stateMutability": "nonpayable",
      "type": "function"
    },
    {
      "inputs": [
        {
          "internalType": "bytes32",
          "name": "role",
          "type": "bytes32"
        },
        {
          "internalType": "address",
          "name": "account",
          "type": "address"
        }
      ],
      "name": "hasRole",
      "outputs": [
        {
          "internalType": "bool",
          "name": "",
          "type": "bool"
        }
      ],
      "stateMutability": "view",
      "type": "function"
    },
    {
      "inputs": [
        {
          "internalType": "address",
          "name": "user",
          "type": "address"
        }
      ],
      "name": "isAdmin",
      "outputs": [
        {
          "internalType": "bool",
          "name": "",
          "type": "bool"
        }
      ],
      "stateMutability": "view",
      "type": "function"
    },
    {
      "inputs": [
        {
          "internalType": "address",
          "name": "user",
          "type": "address"
        }
      ],
      "name": "isPublisher",
      "outputs": [
        {
          "internalType": "bool",
          "name": "",
          "type": "bool"
        }
      ],
      "stateMutability": "view",
      "type": "function"
    },
    {
      "inputs": [
        {
          "internalType": "uint256",
          "name": "",
          "type": "uint256"
        }
      ],
      "name": "publisherAddresses",
      "outputs": [
        {
          "internalType": "address",
          "name": "",
          "type": "address"
        }
      ],
      "stateMutability": "view",
      "type": "function"
    },
    {
      "inputs": [
        {
          "internalType": "address",
          "name": "",
          "type": "address"
        },
        {
          "internalType": "uint256",
          "name": "",
          "type": "uint256"
        }
      ],
      "name": "publisherArticles",
      "outputs": [
        {
          "internalType": "uint256",
          "name": "",
          "type": "uint256"
        }
      ],
      "stateMutability": "view",
      "type": "function"
    },
    {
      "inputs": [
        {
          "internalType": "address",
          "name": "",
          "type": "address"
        }
      ],
      "name": "publishers",
      "outputs": [
        {
          "internalType": "address",
          "name": "publisherID",
          "type": "address"
        },
        {
          "internalType": "uint256",
          "name": "registrationTimestamp",
          "type": "uint256"
        },
        {
          "internalType": "int256",
          "name": "reputationScore",
          "type": "int256"
        },
        {
          "internalType": "bool",
          "name": "isRegistered",
          "type": "bool"
        }
      ],
      "stateMutability": "view",
      "type": "function"
    },
    {
      "inputs": [
        {
          "internalType": "address",
          "name": "",
          "type": "address"
        }
      ],
      "name": "readers",
      "outputs": [
        {
          "internalType": "address",
          "name": "readerID",
          "type": "address"
        }
      ],
      "stateMutability": "view",
      "type": "function"
    },
    {
      "inputs": [
        {
          "internalType": "address",
          "name": "publisherAddress",
          "type": "address"
        }
      ],
      "name": "registerPublisher",
      "outputs": [],
      "stateMutability": "nonpayable",
      "type": "function"
    },
    {
      "inputs": [
        {
          "internalType": "bytes32",
          "name": "role",
          "type": "bytes32"
        },
        {
          "internalType": "address",
          "name": "callerConfirmation",
          "type": "address"
        }
      ],
      "name": "renounceRole",
      "outputs": [],
      "stateMutability": "nonpayable",
      "type": "function"
    },
    {
      "inputs": [
        {
          "internalType": "bytes32",
          "name": "role",
          "type": "bytes32"
        },
        {
          "internalType": "address",
          "name": "account",
          "type": "address"
        }
      ],
      "name": "revokeRole",
      "outputs": [],
      "stateMutability": "nonpayable",
      "type": "function"
    },
    {
      "inputs": [
        {
          "internalType": "string",
          "name": "title",
          "type": "string"
        },
        {
          "internalType": "string",
          "name": "content",
          "type": "string"
        }
      ],
      "name": "submitArticle",
      "outputs": [],
      "stateMutability": "nonpayable",
      "type": "function"
    },
    {
      "inputs": [
        {
          "internalType": "bytes4",
          "name": "interfaceId",
          "type": "bytes4"
        }
      ],
      "name": "supportsInterface",
      "outputs": [
        {
          "internalType": "bool",
          "name": "",
          "type": "bool"
        }
      ],
      "stateMutability": "view",
      "type": "function"
    },
    {
      "inputs": [
        {
          "internalType": "uint256",
          "name": "articleId",
          "type": "uint256"
        },
        {
          "internalType": "string",
          "name": "newTitle",
          "type": "string"
        },
        {
          "internalType": "string",
          "name": "newContent",
          "type": "string"
        }
      ],
      "name": "updateArticle",
      "outputs": [],
      "stateMutability": "nonpayable",
      "type": "function"
    }
  ],
  "bytecode": "0x60806040523480156200001157600080fd5b50620000276000801b336200006160201b60201c565b506200005a7f0ac90c257048ef1c3e387c26d4a99bde06894efbcbff862dc1885c3a9319308a336200006160201b60201c565b50620001d6565b60006200007583836200016460201b60201c565b6200015957600160008085815260200190815260200160002060000160008473ffffffffffffffffffffffffffffffffffffffff1673ffffffffffffffffffffffffffffffffffffffff16815260200190815260200160002060006101000a81548160ff021916908315150217905550620000f5620001ce60201b60201c565b73ffffffffffffffffffffffffffffffffffffffff168273ffffffffffffffffffffffffffffffffffffffff16847f2f8788117e7eff1d82e926ec794901d17c78024a50270940304540a733656f0d60405160405180910390a4600190506200015e565b600090505b92915050565b600080600084815260200190815260200160002060000160008373ffffffffffffffffffffffffffffffffffffffff1673ffffffffffffffffffffffffffffffffffffffff16815260200190815260200160002060009054906101000a900460ff16905092915050565b600033905090565b613e3980620001e66000396000f3fe608060405234801561001057600080fd5b50600436106101a95760003560e01c8063703fd07d116100f9578063bd85d86711610097578063d8f4b6fd11610071578063d8f4b6fd14610543578063d98fabc114610561578063edcfafe614610591578063ffcd40f3146105c5576101a9565b8063bd85d867146104db578063c634b78e1461050b578063d547741f14610527576101a9565b806391d14854116100d357806391d148541461042d5780639201de551461045d578063a217fddf1461048d578063abb7ae5d146104ab576101a9565b8063703fd07d146103c357806373e4312d146103e15780638867041214610411576101a9565b80632f2ff15d1161016657806341859ac81161014057806341859ac8146103115780634bab5a46146103415780634c96f2811461037557806351e59ffb14610393576101a9565b80632f2ff15d146102bd5780633336acd3146102d957806336568abe146102f5576101a9565b806301ffc9a7146101ae5780630a4d85cd146101de5780631df550f714610211578063248a9ca31461024157806324d7806c1461027157806325671a2f146102a1575b600080fd5b6101c860048036038101906101c391906128c0565b6105f5565b6040516101d59190612908565b60405180910390f35b6101f860048036038101906101f39190612981565b61066f565b60405161020894939291906129ef565b60405180910390f35b61022b60048036038101906102269190612a60565b6106cc565b6040516102389190612a8d565b60405180910390f35b61025b60048036038101906102569190612ade565b61070b565b6040516102689190612b1a565b60405180910390f35b61028b60048036038101906102869190612981565b61072a565b6040516102989190612908565b60405180910390f35b6102bb60048036038101906102b69190612c7b565b610740565b005b6102d760048036038101906102d29190612cf3565b610b9c565b005b6102f360048036038101906102ee9190612981565b610bbe565b005b61030f600480360381019061030a9190612cf3565b610e22565b005b61032b60048036038101906103269190612981565b610e9d565b6040516103389190612908565b60405180910390f35b61035b60048036038101906103569190612a60565b610ed0565b60405161036c959493929190612db2565b60405180910390f35b61037d6110be565b60405161038a9190612f5a565b60405180910390f35b6103ad60048036038101906103a89190612981565b61139c565b6040516103ba9190612a8d565b60405180910390f35b6103cb6113da565b6040516103d8919061302b565b60405180910390f35b6103fb60048036038101906103f69190612981565b611486565b60405161040891906131dd565b60405180910390f35b61042b600480360381019061042691906131ff565b611905565b005b61044760048036038101906104429190612cf3565b611cb7565b6040516104549190612908565b60405180910390f35b61047760048036038101906104729190612ade565b611d21565b604051610484919061328a565b60405180910390f35b610495611d4a565b6040516104a29190612b1a565b60405180910390f35b6104c560048036038101906104c09190612a60565b611d51565b6040516104d291906132ac565b60405180910390f35b6104f560048036038101906104f09190612a60565b611d69565b604051610502919061334b565b60405180910390f35b61052560048036038101906105209190612981565b612005565b005b610541600480360381019061053c9190612cf3565b612023565b005b61054b612045565b6040516105589190612b1a565b60405180910390f35b61057b6004803603810190610576919061336d565b612069565b60405161058891906132ac565b60405180910390f35b6105ab60048036038101906105a69190612a60565b61209a565b6040516105bc959493929190612db2565b60405180910390f35b6105df60048036038101906105da9190612a60565b612288565b6040516105ec91906134d2565b60405180910390f35b60007f7965db0b000000000000000000000000000000000000000000000000000000007bffffffffffffffffffffffffffffffffffffffffffffffffffffffff1916827bffffffffffffffffffffffffffffffffffffffffffffffffffffffff191614806106685750610667826124d7565b5b9050919050565b60046020528060005260406000206000915090508060000160009054906101000a900473ffffffffffffffffffffffffffffffffffffffff16908060010154908060020154908060030160009054906101000a900460ff16905084565b600181815481106106dc57600080fd5b906000526020600020016000915054906101000a900473ffffffffffffffffffffffffffffffffffffffff1681565b6000806000838152602001908152602001600020600101549050919050565b60006107396000801b83611cb7565b9050919050565b61076a7f0ac90c257048ef1c3e387c26d4a99bde06894efbcbff862dc1885c3a9319308a33611cb7565b6107a9576040517f08c379a00000000000000000000000000000000000000000000000000000000081526004016107a090613540565b60405180910390fd5b60008251116107ed576040517f08c379a00000000000000000000000000000000000000000000000000000000081526004016107e4906135ac565b60405180910390fd5b6000815111610831576040517f08c379a000000000000000000000000000000000000000000000000000000000815260040161082890613618565b60405180910390fd5b6007600081548092919061084490613667565b919050555060006007549050600083836040516020016108659291906136eb565b604051602081830303815290604052805190602001209050836002600084815260200190815260200160002060000190816108a0919061391b565b50826002600084815260200190815260200160002060010190816108c4919061391b565b50426002600084815260200190815260200160002060020181905550336002600084815260200190815260200160002060030160006101000a81548173ffffffffffffffffffffffffffffffffffffffff021916908373ffffffffffffffffffffffffffffffffffffffff16021790555061093e81611d21565b600260008481526020019081526020016000206004019081610960919061391b565b50600060019050604051806080016040528082815260200161098184611d21565b81526020013373ffffffffffffffffffffffffffffffffffffffff168152602001428152506002600085815260200190815260200160002060050160008381526020019081526020016000206000820151816000015560208201518160010190816109ec919061391b565b5060408201518160020160006101000a81548173ffffffffffffffffffffffffffffffffffffffff021916908373ffffffffffffffffffffffffffffffffffffffff16021790555060608201518160030155905050600560003373ffffffffffffffffffffffffffffffffffffffff1673ffffffffffffffffffffffffffffffffffffffff1681526020019081526020016000208390806001815401808255809150506001900390600052602060002001600090919091909150556040518060a001604052808681526020018581526020014281526020013373ffffffffffffffffffffffffffffffffffffffff168152602001610ae984611d21565b815250600360008581526020019081526020016000206000820151816000019081610b14919061391b565b506020820151816001019081610b2a919061391b565b506040820151816002015560608201518160030160006101000a81548173ffffffffffffffffffffffffffffffffffffffff021916908373ffffffffffffffffffffffffffffffffffffffff1602179055506080820151816004019081610b91919061391b565b509050505050505050565b610ba58261070b565b610bae81612541565b610bb88383612555565b50505050565b610bcb6000801b33611cb7565b610c0a576040517f08c379a0000000000000000000000000000000000000000000000000000000008152600401610c0190613a39565b60405180910390fd5b600460008273ffffffffffffffffffffffffffffffffffffffff1673ffffffffffffffffffffffffffffffffffffffff16815260200190815260200160002060030160009054906101000a900460ff1615610c9a576040517f08c379a0000000000000000000000000000000000000000000000000000000008152600401610c9190613aa5565b60405180910390fd5b60405180608001604052808273ffffffffffffffffffffffffffffffffffffffff1681526020014281526020016000815260200160011515815250600460008373ffffffffffffffffffffffffffffffffffffffff1673ffffffffffffffffffffffffffffffffffffffff16815260200190815260200160002060008201518160000160006101000a81548173ffffffffffffffffffffffffffffffffffffffff021916908373ffffffffffffffffffffffffffffffffffffffff160217905550602082015181600101556040820151816002015560608201518160030160006101000a81548160ff0219169083151502179055509050506001819080600181540180825580915050600190039060005260206000200160009091909190916101000a81548173ffffffffffffffffffffffffffffffffffffffff021916908373ffffffffffffffffffffffffffffffffffffffff160217905550610e1f7f0ac90c257048ef1c3e387c26d4a99bde06894efbcbff862dc1885c3a9319308a82610b9c565b50565b610e2a612646565b73ffffffffffffffffffffffffffffffffffffffff168173ffffffffffffffffffffffffffffffffffffffff1614610e8e576040517f6697b23200000000000000000000000000000000000000000000000000000000815260040160405180910390fd5b610e98828261264e565b505050565b6000610ec97f0ac90c257048ef1c3e387c26d4a99bde06894efbcbff862dc1885c3a9319308a83611cb7565b9050919050565b6003602052806000526040600020600091509050806000018054610ef39061373e565b80601f0160208091040260200160405190810160405280929190818152602001828054610f1f9061373e565b8015610f6c5780601f10610f4157610100808354040283529160200191610f6c565b820191906000526020600020905b815481529060010190602001808311610f4f57829003601f168201915b505050505090806001018054610f819061373e565b80601f0160208091040260200160405190810160405280929190818152602001828054610fad9061373e565b8015610ffa5780601f10610fcf57610100808354040283529160200191610ffa565b820191906000526020600020905b815481529060010190602001808311610fdd57829003601f168201915b5050505050908060020154908060030160009054906101000a900473ffffffffffffffffffffffffffffffffffffffff169080600401805461103b9061373e565b80601f01602080910402602001604051908101604052809291908181526020018280546110679061373e565b80156110b45780601f10611089576101008083540402835291602001916110b4565b820191906000526020600020905b81548152906001019060200180831161109757829003601f168201915b5050505050905085565b60606000805b600180549050811015611186576000600182815481106110e7576110e6613ac5565b5b9060005260206000200160009054906101000a900473ffffffffffffffffffffffffffffffffffffffff169050600460008273ffffffffffffffffffffffffffffffffffffffff1673ffffffffffffffffffffffffffffffffffffffff16815260200190815260200160002060030160009054906101000a900460ff161561117857828061117490613667565b9350505b5080806001019150506110c4565b5060008167ffffffffffffffff8111156111a3576111a2612b50565b5b6040519080825280602002602001820160405280156111dc57816020015b6111c9612791565b8152602001906001900390816111c15790505b5090506000805b6001805490508110156113925760006001828154811061120657611205613ac5565b5b9060005260206000200160009054906101000a900473ffffffffffffffffffffffffffffffffffffffff169050600460008273ffffffffffffffffffffffffffffffffffffffff1673ffffffffffffffffffffffffffffffffffffffff16815260200190815260200160002060030160009054906101000a900460ff161561138457600460008273ffffffffffffffffffffffffffffffffffffffff1673ffffffffffffffffffffffffffffffffffffffff1681526020019081526020016000206040518060800160405290816000820160009054906101000a900473ffffffffffffffffffffffffffffffffffffffff1673ffffffffffffffffffffffffffffffffffffffff1673ffffffffffffffffffffffffffffffffffffffff16815260200160018201548152602001600282015481526020016003820160009054906101000a900460ff16151515158152505084848151811061136a57611369613ac5565b5b6020026020010181905250828061138090613667565b9350505b5080806001019150506111e3565b5081935050505090565b60066020528060005260406000206000915090508060000160009054906101000a900473ffffffffffffffffffffffffffffffffffffffff16905081565b60606000600754905060008167ffffffffffffffff8111156113ff576113fe612b50565b5b60405190808252806020026020018201604052801561142d5781602001602082028036833780820191505090505b5090506000600190505b82811161147d57808260018361144d9190613af4565b8151811061145e5761145d613ac5565b5b602002602001018181525050808061147590613667565b915050611437565b50809250505090565b6060600460008373ffffffffffffffffffffffffffffffffffffffff1673ffffffffffffffffffffffffffffffffffffffff16815260200190815260200160002060030160009054906101000a900460ff16611517576040517f08c379a000000000000000000000000000000000000000000000000000000000815260040161150e90613b74565b60405180910390fd5b6000600560008473ffffffffffffffffffffffffffffffffffffffff1673ffffffffffffffffffffffffffffffffffffffff1681526020019081526020016000208054806020026020016040519081016040528092919081815260200182805480156115a257602002820191906000526020600020905b81548152602001906001019080831161158e575b505050505090506000815167ffffffffffffffff8111156115c6576115c5612b50565b5b6040519080825280602002602001820160405280156115ff57816020015b6115ec6127d1565b8152602001906001900390816115e45790505b50905060005b82518110156118fa5760006002600085848151811061162757611626613ac5565b5b602002602001015181526020019081526020016000206002015403611681576040517f08c379a000000000000000000000000000000000000000000000000000000000815260040161167890613be0565b60405180910390fd5b6003600084838151811061169857611697613ac5565b5b602002602001015181526020019081526020016000206040518060a00160405290816000820180546116c99061373e565b80601f01602080910402602001604051908101604052809291908181526020018280546116f59061373e565b80156117425780601f1061171757610100808354040283529160200191611742565b820191906000526020600020905b81548152906001019060200180831161172557829003601f168201915b5050505050815260200160018201805461175b9061373e565b80601f01602080910402602001604051908101604052809291908181526020018280546117879061373e565b80156117d45780601f106117a9576101008083540402835291602001916117d4565b820191906000526020600020905b8154815290600101906020018083116117b757829003601f168201915b50505050508152602001600282015481526020016003820160009054906101000a900473ffffffffffffffffffffffffffffffffffffffff1673ffffffffffffffffffffffffffffffffffffffff1673ffffffffffffffffffffffffffffffffffffffff16815260200160048201805461184d9061373e565b80601f01602080910402602001604051908101604052809291908181526020018280546118799061373e565b80156118c65780601f1061189b576101008083540402835291602001916118c6565b820191906000526020600020905b8154815290600101906020018083116118a957829003601f168201915b5050505050815250508282815181106118e2576118e1613ac5565b5b60200260200101819052508080600101915050611605565b508092505050919050565b61192f7f0ac90c257048ef1c3e387c26d4a99bde06894efbcbff862dc1885c3a9319308a33611cb7565b61196e576040517f08c379a000000000000000000000000000000000000000000000000000000000815260040161196590613540565b60405180910390fd5b60006002600085815260200190815260200160002060030160009054906101000a900473ffffffffffffffffffffffffffffffffffffffff1690506000600260008681526020019081526020016000206002015403611a02576040517f08c379a00000000000000000000000000000000000000000000000000000000081526004016119f990613be0565b60405180910390fd5b8073ffffffffffffffffffffffffffffffffffffffff163373ffffffffffffffffffffffffffffffffffffffff1614611a70576040517f08c379a0000000000000000000000000000000000000000000000000000000008152600401611a6790613c72565b60405180910390fd5b6000835111611ab4576040517f08c379a0000000000000000000000000000000000000000000000000000000008152600401611aab90613cde565b60405180910390fd5b6000825111611af8576040517f08c379a0000000000000000000000000000000000000000000000000000000008152600401611aef90613d4a565b60405180910390fd5b60008383604051602001611b0d9291906136eb565b60405160208183030381529060405280519060200120905083600260008781526020019081526020016000206000019081611b48919061391b565b5082600260008781526020019081526020016000206001019081611b6c919061391b565b50611b7681611d21565b600260008781526020019081526020016000206004019081611b98919061391b565b50600060016008600088815260200190815260200160002054611bbb9190613d6a565b90506040518060800160405280828152602001611bd784611d21565b81526020013373ffffffffffffffffffffffffffffffffffffffff16815260200142815250600260008881526020019081526020016000206005016000838152602001908152602001600020600082015181600001556020820151816001019081611c42919061391b565b5060408201518160020160006101000a81548173ffffffffffffffffffffffffffffffffffffffff021916908373ffffffffffffffffffffffffffffffffffffffff16021790555060608201518160030155905050806008600088815260200190815260200160002081905550505050505050565b600080600084815260200190815260200160002060000160008373ffffffffffffffffffffffffffffffffffffffff1673ffffffffffffffffffffffffffffffffffffffff16815260200190815260200160002060009054906101000a900460ff16905092915050565b606081604051602001611d349190613dbf565b6040516020818303038152906040529050919050565b6000801b81565b60086020528060005260406000206000915090505481565b611d716127d1565b6000600360008481526020019081526020016000206002015403611dca576040517f08c379a0000000000000000000000000000000000000000000000000000000008152600401611dc190613be0565b60405180910390fd5b600360008381526020019081526020016000206040518060a0016040529081600082018054611df89061373e565b80601f0160208091040260200160405190810160405280929190818152602001828054611e249061373e565b8015611e715780601f10611e4657610100808354040283529160200191611e71565b820191906000526020600020905b815481529060010190602001808311611e5457829003601f168201915b50505050508152602001600182018054611e8a9061373e565b80601f0160208091040260200160405190810160405280929190818152602001828054611eb69061373e565b8015611f035780601f10611ed857610100808354040283529160200191611f03565b820191906000526020600020905b815481529060010190602001808311611ee657829003601f168201915b50505050508152602001600282015481526020016003820160009054906101000a900473ffffffffffffffffffffffffffffffffffffffff1673ffffffffffffffffffffffffffffffffffffffff1673ffffffffffffffffffffffffffffffffffffffff168152602001600482018054611f7c9061373e565b80601f0160208091040260200160405190810160405280929190818152602001828054611fa89061373e565b8015611ff55780601f10611fca57610100808354040283529160200191611ff5565b820191906000526020600020905b815481529060010190602001808311611fd857829003601f168201915b5050505050815250509050919050565b6000801b61201281612541565b61201f6000801b83610b9c565b5050565b61202c8261070b565b61203581612541565b61203f838361264e565b50505050565b7f0ac90c257048ef1c3e387c26d4a99bde06894efbcbff862dc1885c3a9319308a81565b6005602052816000526040600020818154811061208557600080fd5b90600052602060002001600091509150505481565b60026020528060005260406000206000915090508060000180546120bd9061373e565b80601f01602080910402602001604051908101604052809291908181526020018280546120e99061373e565b80156121365780601f1061210b57610100808354040283529160200191612136565b820191906000526020600020905b81548152906001019060200180831161211957829003601f168201915b50505050509080600101805461214b9061373e565b80601f01602080910402602001604051908101604052809291908181526020018280546121779061373e565b80156121c45780601f10612199576101008083540402835291602001916121c4565b820191906000526020600020905b8154815290600101906020018083116121a757829003601f168201915b5050505050908060020154908060030160009054906101000a900473ffffffffffffffffffffffffffffffffffffffff16908060040180546122059061373e565b80601f01602080910402602001604051908101604052809291908181526020018280546122319061373e565b801561227e5780601f106122535761010080835404028352916020019161227e565b820191906000526020600020905b81548152906001019060200180831161226157829003601f168201915b5050505050905085565b606060006002600084815260200190815260200160002060020154036122e3576040517f08c379a00000000000000000000000000000000000000000000000000000000081526004016122da90613be0565b60405180910390fd5b60006008600084815260200190815260200160002054905060008167ffffffffffffffff81111561231757612316612b50565b5b60405190808252806020026020018201604052801561235057816020015b61233d612816565b8152602001906001900390816123355790505b5090506000600190505b8281116124cc57600260008681526020019081526020016000206005016000828152602001908152602001600020604051806080016040529081600082015481526020016001820180546123ad9061373e565b80601f01602080910402602001604051908101604052809291908181526020018280546123d99061373e565b80156124265780601f106123fb57610100808354040283529160200191612426565b820191906000526020600020905b81548152906001019060200180831161240957829003601f168201915b505050505081526020016002820160009054906101000a900473ffffffffffffffffffffffffffffffffffffffff1673ffffffffffffffffffffffffffffffffffffffff1673ffffffffffffffffffffffffffffffffffffffff1681526020016003820154815250508260018361249d9190613af4565b815181106124ae576124ad613ac5565b5b602002602001018190525080806124c490613667565b91505061235a565b508092505050919050565b60007f01ffc9a7000000000000000000000000000000000000000000000000000000007bffffffffffffffffffffffffffffffffffffffffffffffffffffffff1916827bffffffffffffffffffffffffffffffffffffffffffffffffffffffff1916149050919050565b6125528161254d612646565b612740565b50565b60006125618383611cb7565b61263b57600160008085815260200190815260200160002060000160008473ffffffffffffffffffffffffffffffffffffffff1673ffffffffffffffffffffffffffffffffffffffff16815260200190815260200160002060006101000a81548160ff0219169083151502179055506125d8612646565b73ffffffffffffffffffffffffffffffffffffffff168273ffffffffffffffffffffffffffffffffffffffff16847f2f8788117e7eff1d82e926ec794901d17c78024a50270940304540a733656f0d60405160405180910390a460019050612640565b600090505b92915050565b600033905090565b600061265a8383611cb7565b1561273557600080600085815260200190815260200160002060000160008473ffffffffffffffffffffffffffffffffffffffff1673ffffffffffffffffffffffffffffffffffffffff16815260200190815260200160002060006101000a81548160ff0219169083151502179055506126d2612646565b73ffffffffffffffffffffffffffffffffffffffff168273ffffffffffffffffffffffffffffffffffffffff16847ff6391f5c32d9c69d2a47ea670b442974b53935d1edc7fd64eb21e047a839171b60405160405180910390a46001905061273a565b600090505b92915050565b61274a8282611cb7565b61278d5780826040517fe2517d3f000000000000000000000000000000000000000000000000000000008152600401612784929190613dda565b60405180910390fd5b5050565b6040518060800160405280600073ffffffffffffffffffffffffffffffffffffffff16815260200160008152602001600081526020016000151581525090565b6040518060a00160405280606081526020016060815260200160008152602001600073ffffffffffffffffffffffffffffffffffffffff168152602001606081525090565b60405180608001604052806000815260200160608152602001600073ffffffffffffffffffffffffffffffffffffffff168152602001600081525090565b6000604051905090565b600080fd5b600080fd5b60007fffffffff0000000000000000000000000000000000000000000000000000000082169050919050565b61289d81612868565b81146128a857600080fd5b50565b6000813590506128ba81612894565b92915050565b6000602082840312156128d6576128d561285e565b5b60006128e4848285016128ab565b91505092915050565b60008115159050919050565b612902816128ed565b82525050565b600060208201905061291d60008301846128f9565b92915050565b600073ffffffffffffffffffffffffffffffffffffffff82169050919050565b600061294e82612923565b9050919050565b61295e81612943565b811461296957600080fd5b50565b60008135905061297b81612955565b92915050565b6000602082840312156129975761299661285e565b5b60006129a58482850161296c565b91505092915050565b6129b781612943565b82525050565b6000819050919050565b6129d0816129bd565b82525050565b6000819050919050565b6129e9816129d6565b82525050565b6000608082019050612a0460008301876129ae565b612a1160208301866129c7565b612a1e60408301856129e0565b612a2b60608301846128f9565b95945050505050565b612a3d816129bd565b8114612a4857600080fd5b50565b600081359050612a5a81612a34565b92915050565b600060208284031215612a7657612a7561285e565b5b6000612a8484828501612a4b565b91505092915050565b6000602082019050612aa260008301846129ae565b92915050565b6000819050919050565b612abb81612aa8565b8114612ac657600080fd5b50565b600081359050612ad881612ab2565b92915050565b600060208284031215612af457612af361285e565b5b6000612b0284828501612ac9565b91505092915050565b612b1481612aa8565b82525050565b6000602082019050612b2f6000830184612b0b565b92915050565b600080fd5b600080fd5b6000601f19601f8301169050919050565b7f4e487b7100000000000000000000000000000000000000000000000000000000600052604160045260246000fd5b612b8882612b3f565b810181811067ffffffffffffffff82111715612ba757612ba6612b50565b5b80604052505050565b6000612bba612854565b9050612bc68282612b7f565b919050565b600067ffffffffffffffff821115612be657612be5612b50565b5b612bef82612b3f565b9050602081019050919050565b82818337600083830152505050565b6000612c1e612c1984612bcb565b612bb0565b905082815260208101848484011115612c3a57612c39612b3a565b5b612c45848285612bfc565b509392505050565b600082601f830112612c6257612c61612b35565b5b8135612c72848260208601612c0b565b91505092915050565b60008060408385031215612c9257612c9161285e565b5b600083013567ffffffffffffffff811115612cb057612caf612863565b5b612cbc85828601612c4d565b925050602083013567ffffffffffffffff811115612cdd57612cdc612863565b5b612ce985828601612c4d565b9150509250929050565b60008060408385031215612d0a57612d0961285e565b5b6000612d1885828601612ac9565b9250506020612d298582860161296c565b9150509250929050565b600081519050919050565b600082825260208201905092915050565b60005b83811015612d6d578082015181840152602081019050612d52565b60008484015250505050565b6000612d8482612d33565b612d8e8185612d3e565b9350612d9e818560208601612d4f565b612da781612b3f565b840191505092915050565b600060a0820190508181036000830152612dcc8188612d79565b90508181036020830152612de08187612d79565b9050612def60408301866129c7565b612dfc60608301856129ae565b8181036080830152612e0e8184612d79565b90509695505050505050565b600081519050919050565b600082825260208201905092915050565b6000819050602082019050919050565b612e4f81612943565b82525050565b612e5e816129bd565b82525050565b612e6d816129d6565b82525050565b612e7c816128ed565b82525050565b608082016000820151612e986000850182612e46565b506020820151612eab6020850182612e55565b506040820151612ebe6040850182612e64565b506060820151612ed16060850182612e73565b50505050565b6000612ee38383612e82565b60808301905092915050565b6000602082019050919050565b6000612f0782612e1a565b612f118185612e25565b9350612f1c83612e36565b8060005b83811015612f4d578151612f348882612ed7565b9750612f3f83612eef565b925050600181019050612f20565b5085935050505092915050565b60006020820190508181036000830152612f748184612efc565b905092915050565b600081519050919050565b600082825260208201905092915050565b6000819050602082019050919050565b6000612fb48383612e55565b60208301905092915050565b6000602082019050919050565b6000612fd882612f7c565b612fe28185612f87565b9350612fed83612f98565b8060005b8381101561301e5781516130058882612fa8565b975061301083612fc0565b925050600181019050612ff1565b5085935050505092915050565b600060208201905081810360008301526130458184612fcd565b905092915050565b600081519050919050565b600082825260208201905092915050565b6000819050602082019050919050565b600082825260208201905092915050565b600061309582612d33565b61309f8185613079565b93506130af818560208601612d4f565b6130b881612b3f565b840191505092915050565b600060a08301600083015184820360008601526130e0828261308a565b915050602083015184820360208601526130fa828261308a565b915050604083015161310f6040860182612e55565b5060608301516131226060860182612e46565b506080830151848203608086015261313a828261308a565b9150508091505092915050565b600061315383836130c3565b905092915050565b6000602082019050919050565b60006131738261304d565b61317d8185613058565b93508360208202850161318f85613069565b8060005b858110156131cb57848403895281516131ac8582613147565b94506131b78361315b565b925060208a01995050600181019050613193565b50829750879550505050505092915050565b600060208201905081810360008301526131f78184613168565b905092915050565b6000806000606084860312156132185761321761285e565b5b600061322686828701612a4b565b935050602084013567ffffffffffffffff81111561324757613246612863565b5b61325386828701612c4d565b925050604084013567ffffffffffffffff81111561327457613273612863565b5b61328086828701612c4d565b9150509250925092565b600060208201905081810360008301526132a48184612d79565b905092915050565b60006020820190506132c160008301846129c7565b92915050565b600060a08301600083015184820360008601526132e4828261308a565b915050602083015184820360208601526132fe828261308a565b91505060408301516133136040860182612e55565b5060608301516133266060860182612e46565b506080830151848203608086015261333e828261308a565b9150508091505092915050565b6000602082019050818103600083015261336581846132c7565b905092915050565b600080604083850312156133845761338361285e565b5b60006133928582860161296c565b92505060206133a385828601612a4b565b9150509250929050565b600081519050919050565b600082825260208201905092915050565b6000819050602082019050919050565b60006080830160008301516133f16000860182612e55565b5060208301518482036020860152613409828261308a565b915050604083015161341e6040860182612e46565b5060608301516134316060860182612e55565b508091505092915050565b600061344883836133d9565b905092915050565b6000602082019050919050565b6000613468826133ad565b61347281856133b8565b935083602082028501613484856133c9565b8060005b858110156134c057848403895281516134a1858261343c565b94506134ac83613450565b925060208a01995050600181019050613488565b50829750879550505050505092915050565b600060208201905081810360008301526134ec818461345d565b905092915050565b7f43616c6c6572206973206e6f742061207075626c697368657200000000000000600082015250565b600061352a601983612d3e565b9150613535826134f4565b602082019050919050565b600060208201905081810360008301526135598161351d565b9050919050565b7f5469746c652063616e6e6f7420626520656d7074790000000000000000000000600082015250565b6000613596601583612d3e565b91506135a182613560565b602082019050919050565b600060208201905081810360008301526135c581613589565b9050919050565b7f436f6e74656e742063616e6e6f7420626520656d707479000000000000000000600082015250565b6000613602601783612d3e565b915061360d826135cc565b602082019050919050565b60006020820190508181036000830152613631816135f5565b9050919050565b7f4e487b7100000000000000000000000000000000000000000000000000000000600052601160045260246000fd5b6000613672826129bd565b91507fffffffffffffffffffffffffffffffffffffffffffffffffffffffffffffffff82036136a4576136a3613638565b5b600182019050919050565b600081905092915050565b60006136c582612d33565b6136cf81856136af565b93506136df818560208601612d4f565b80840191505092915050565b60006136f782856136ba565b915061370382846136ba565b91508190509392505050565b7f4e487b7100000000000000000000000000000000000000000000000000000000600052602260045260246000fd5b6000600282049050600182168061375657607f821691505b6020821081036137695761376861370f565b5b50919050565b60008190508160005260206000209050919050565b60006020601f8301049050919050565b600082821b905092915050565b6000600883026137d17fffffffffffffffffffffffffffffffffffffffffffffffffffffffffffffffff82613794565b6137db8683613794565b95508019841693508086168417925050509392505050565b6000819050919050565b600061381861381361380e846129bd565b6137f3565b6129bd565b9050919050565b6000819050919050565b613832836137fd565b61384661383e8261381f565b8484546137a1565b825550505050565b600090565b61385b61384e565b613866818484613829565b505050565b5b8181101561388a5761387f600082613853565b60018101905061386c565b5050565b601f8211156138cf576138a08161376f565b6138a984613784565b810160208510156138b8578190505b6138cc6138c485613784565b83018261386b565b50505b505050565b600082821c905092915050565b60006138f2600019846008026138d4565b1980831691505092915050565b600061390b83836138e1565b9150826002028217905092915050565b61392482612d33565b67ffffffffffffffff81111561393d5761393c612b50565b5b613947825461373e565b61395282828561388e565b600060209050601f8311600181146139855760008415613973578287015190505b61397d85826138ff565b8655506139e5565b601f1984166139938661376f565b60005b828110156139bb57848901518255600182019150602085019450602081019050613996565b868310156139d857848901516139d4601f8916826138e1565b8355505b6001600288020188555050505b505050505050565b7f43616c6c6572206973206e6f7420616e2061646d696e00000000000000000000600082015250565b6000613a23601683612d3e565b9150613a2e826139ed565b602082019050919050565b60006020820190508181036000830152613a5281613a16565b9050919050565b7f5075626c697368657220616c7265616479207265676973746572656400000000600082015250565b6000613a8f601c83612d3e565b9150613a9a82613a59565b602082019050919050565b60006020820190508181036000830152613abe81613a82565b9050919050565b7f4e487b7100000000000000000000000000000000000000000000000000000000600052603260045260246000fd5b6000613aff826129bd565b9150613b0a836129bd565b9250828203905081811115613b2257613b21613638565b5b92915050565b7f5075626c6973686572206e6f7420726567697374657265640000000000000000600082015250565b6000613b5e601883612d3e565b9150613b6982613b28565b602082019050919050565b60006020820190508181036000830152613b8d81613b51565b9050919050565b7f41727469636c6520646f6573206e6f7420657869737400000000000000000000600082015250565b6000613bca601683612d3e565b9150613bd582613b94565b602082019050919050565b60006020820190508181036000830152613bf981613bbd565b9050919050565b7f4f6e6c7920746865206f726967696e616c207075626c69736865722063616e2060008201527f7570646174652e00000000000000000000000000000000000000000000000000602082015250565b6000613c5c602783612d3e565b9150613c6782613c00565b604082019050919050565b60006020820190508181036000830152613c8b81613c4f565b9050919050565b7f4e6577207469746c652063616e6e6f7420626520656d70747900000000000000600082015250565b6000613cc8601983612d3e565b9150613cd382613c92565b602082019050919050565b60006020820190508181036000830152613cf781613cbb565b9050919050565b7f4e657720636f6e74656e742063616e6e6f7420626520656d7074790000000000600082015250565b6000613d34601b83612d3e565b9150613d3f82613cfe565b602082019050919050565b60006020820190508181036000830152613d6381613d27565b9050919050565b6000613d75826129bd565b9150613d80836129bd565b9250828201905080821115613d9857613d97613638565b5b92915050565b6000819050919050565b613db9613db482612aa8565b613d9e565b82525050565b6000613dcb8284613da8565b60208201915081905092915050565b6000604082019050613def60008301856129ae565b613dfc6020830184612b0b565b939250505056fea2646970667358221220c265522ff2bc1b63184a87ccb4e62bc2ded0f592328e321ebc349e7048cf86fd64736f6c63430008180033",
  "linkReferences": {},
  "deployedLinkReferences": {}
}