{
  "_format": "hh-sol-artifact-1",
  "contractName": "NewsPlatform",
  "sourceName": "contracts/NewsPlatform.sol",
  "abi": [
    {
      "inputs": [],
      "stateMutability": "nonpayable",
      "type": "constructor"
    },
    {
      "inputs": [],
      "name": "AccessControlBadConfirmation",
      "type": "error"
    },
    {
      "inputs": [
        {
          "internalType": "address",
          "name": "account",
          "type": "address"
        },
        {
          "internalType": "bytes32",
          "name": "neededRole",
          "type": "bytes32"
        }
      ],
      "name": "AccessControlUnauthorizedAccount",
      "type": "error"
    },
    {
      "anonymous": false,
      "inputs": [
        {
          "indexed": true,
          "internalType": "bytes32",
          "name": "role",
          "type": "bytes32"
        },
        {
          "indexed": true,
          "internalType": "bytes32",
          "name": "previousAdminRole",
          "type": "bytes32"
        },
        {
          "indexed": true,
          "internalType": "bytes32",
          "name": "newAdminRole",
          "type": "bytes32"
        }
      ],
      "name": "RoleAdminChanged",
      "type": "event"
    },
    {
      "anonymous": false,
      "inputs": [
        {
          "indexed": true,
          "internalType": "bytes32",
          "name": "role",
          "type": "bytes32"
        },
        {
          "indexed": true,
          "internalType": "address",
          "name": "account",
          "type": "address"
        },
        {
          "indexed": true,
          "internalType": "address",
          "name": "sender",
          "type": "address"
        }
      ],
      "name": "RoleGranted",
      "type": "event"
    },
    {
      "anonymous": false,
      "inputs": [
        {
          "indexed": true,
          "internalType": "bytes32",
          "name": "role",
          "type": "bytes32"
        },
        {
          "indexed": true,
          "internalType": "address",
          "name": "account",
          "type": "address"
        },
        {
          "indexed": true,
          "internalType": "address",
          "name": "sender",
          "type": "address"
        }
      ],
      "name": "RoleRevoked",
      "type": "event"
    },
    {
      "inputs": [],
      "name": "DEFAULT_ADMIN_ROLE",
      "outputs": [
        {
          "internalType": "bytes32",
          "name": "",
          "type": "bytes32"
        }
      ],
      "stateMutability": "view",
      "type": "function"
    },
    {
      "inputs": [],
      "name": "PUBLISHER_ROLE",
      "outputs": [
        {
          "internalType": "bytes32",
          "name": "",
          "type": "bytes32"
        }
      ],
      "stateMutability": "view",
      "type": "function"
    },
    {
      "inputs": [
        {
          "internalType": "uint256",
          "name": "",
          "type": "uint256"
        }
      ],
      "name": "articleVersionCounts",
      "outputs": [
        {
          "internalType": "uint256",
          "name": "",
          "type": "uint256"
        }
      ],
      "stateMutability": "view",
      "type": "function"
    },
    {
      "inputs": [
        {
          "internalType": "uint256",
          "name": "",
          "type": "uint256"
        }
      ],
      "name": "articleVersionless",
      "outputs": [
        {
          "internalType": "string",
          "name": "title",
          "type": "string"
        },
        {
          "internalType": "string",
          "name": "content",
          "type": "string"
        },
        {
          "internalType": "uint256",
          "name": "timestamp",
          "type": "uint256"
        },
        {
          "internalType": "address",
          "name": "publisherID",
          "type": "address"
        },
        {
          "internalType": "string",
          "name": "articleHash",
          "type": "string"
        }
      ],
      "stateMutability": "view",
      "type": "function"
    },
    {
      "inputs": [
        {
          "internalType": "uint256",
          "name": "",
          "type": "uint256"
        }
      ],
      "name": "articles",
      "outputs": [
        {
          "internalType": "string",
          "name": "title",
          "type": "string"
        },
        {
          "internalType": "string",
          "name": "content",
          "type": "string"
        },
        {
          "internalType": "uint256",
          "name": "timestamp",
          "type": "uint256"
        },
        {
          "internalType": "address",
          "name": "publisherID",
          "type": "address"
        },
        {
          "internalType": "string",
          "name": "articleHash",
          "type": "string"
        }
      ],
      "stateMutability": "view",
      "type": "function"
    },
    {
      "inputs": [
        {
          "internalType": "bytes32",
          "name": "_bytes32",
          "type": "bytes32"
        }
      ],
      "name": "bytes32ToString",
      "outputs": [
        {
          "internalType": "string",
          "name": "",
          "type": "string"
        }
      ],
      "stateMutability": "pure",
      "type": "function"
    },
    {
      "inputs": [
        {
          "internalType": "uint256",
          "name": "articleId",
          "type": "uint256"
        }
      ],
      "name": "getArticle",
      "outputs": [
        {
          "components": [
            {
              "internalType": "string",
              "name": "title",
              "type": "string"
            },
            {
              "internalType": "string",
              "name": "content",
              "type": "string"
            },
            {
              "internalType": "uint256",
              "name": "timestamp",
              "type": "uint256"
            },
            {
              "internalType": "address",
              "name": "publisherID",
              "type": "address"
            },
            {
              "internalType": "string",
              "name": "articleHash",
              "type": "string"
            }
          ],
          "internalType": "struct NewsPlatform.ArticlewithOutVersion",
          "name": "",
          "type": "tuple"
        }
      ],
      "stateMutability": "view",
      "type": "function"
    },
    {
      "inputs": [
        {
          "internalType": "uint256",
          "name": "articleId",
          "type": "uint256"
        }
      ],
      "name": "getArticleHistory",
      "outputs": [
        {
          "components": [
            {
              "internalType": "uint256",
              "name": "versionNumber",
              "type": "uint256"
            },
            {
              "internalType": "string",
              "name": "articleHash",
              "type": "string"
            },
            {
              "internalType": "address",
              "name": "editorID",
              "type": "address"
            },
            {
              "internalType": "uint256",
              "name": "editTimestamp",
              "type": "uint256"
            }
          ],
          "internalType": "struct NewsPlatform.ArticleVersion[]",
          "name": "",
          "type": "tuple[]"
        }
      ],
      "stateMutability": "view",
      "type": "function"
    },
    {
      "inputs": [
        {
          "internalType": "address",
          "name": "publisherAddress",
          "type": "address"
        }
      ],
      "name": "getArticlesByPublisher",
      "outputs": [
        {
          "components": [
            {
              "internalType": "string",
              "name": "title",
              "type": "string"
            },
            {
              "internalType": "string",
              "name": "content",
              "type": "string"
            },
            {
              "internalType": "uint256",
              "name": "timestamp",
              "type": "uint256"
            },
            {
              "internalType": "address",
              "name": "publisherID",
              "type": "address"
            },
            {
              "internalType": "string",
              "name": "articleHash",
              "type": "string"
            }
          ],
          "internalType": "struct NewsPlatform.ArticlewithOutVersion[]",
          "name": "",
          "type": "tuple[]"
        }
      ],
      "stateMutability": "view",
      "type": "function"
    },
    {
      "inputs": [
        {
          "internalType": "bytes32",
          "name": "role",
          "type": "bytes32"
        }
      ],
      "name": "getRoleAdmin",
      "outputs": [
        {
          "internalType": "bytes32",
          "name": "",
          "type": "bytes32"
        }
      ],
      "stateMutability": "view",
      "type": "function"
    },
    {
      "inputs": [
        {
          "internalType": "address",
          "name": "newAdmin",
          "type": "address"
        }
      ],
      "name": "grantAdminRole",
      "outputs": [],
      "stateMutability": "nonpayable",
      "type": "function"
    },
    {
      "inputs": [
        {
          "internalType": "bytes32",
          "name": "role",
          "type": "bytes32"
        },
        {
          "internalType": "address",
          "name": "account",
          "type": "address"
        }
      ],
      "name": "grantRole",
      "outputs": [],
      "stateMutability": "nonpayable",
      "type": "function"
    },
    {
      "inputs": [
        {
          "internalType": "bytes32",
          "name": "role",
          "type": "bytes32"
        },
        {
          "internalType": "address",
          "name": "account",
          "type": "address"
        }
      ],
      "name": "hasRole",
      "outputs": [
        {
          "internalType": "bool",
          "name": "",
          "type": "bool"
        }
      ],
      "stateMutability": "view",
      "type": "function"
    },
    {
      "inputs": [
        {
          "internalType": "address",
          "name": "",
          "type": "address"
        },
        {
          "internalType": "uint256",
          "name": "",
          "type": "uint256"
        }
      ],
      "name": "publisherArticles",
      "outputs": [
        {
          "internalType": "uint256",
          "name": "",
          "type": "uint256"
        }
      ],
      "stateMutability": "view",
      "type": "function"
    },
    {
      "inputs": [
        {
          "internalType": "address",
          "name": "",
          "type": "address"
        }
      ],
      "name": "publishers",
      "outputs": [
        {
          "internalType": "address",
          "name": "publisherID",
          "type": "address"
        },
        {
          "internalType": "uint256",
          "name": "registrationTimestamp",
          "type": "uint256"
        },
        {
          "internalType": "int256",
          "name": "reputationScore",
          "type": "int256"
        },
        {
          "internalType": "bool",
          "name": "isRegistered",
          "type": "bool"
        }
      ],
      "stateMutability": "view",
      "type": "function"
    },
    {
      "inputs": [
        {
          "internalType": "address",
          "name": "",
          "type": "address"
        }
      ],
      "name": "readers",
      "outputs": [
        {
          "internalType": "address",
          "name": "readerID",
          "type": "address"
        }
      ],
      "stateMutability": "view",
      "type": "function"
    },
    {
      "inputs": [
        {
          "internalType": "address",
          "name": "publisherAddress",
          "type": "address"
        }
      ],
      "name": "registerPublisher",
      "outputs": [],
      "stateMutability": "nonpayable",
      "type": "function"
    },
    {
      "inputs": [
        {
          "internalType": "bytes32",
          "name": "role",
          "type": "bytes32"
        },
        {
          "internalType": "address",
          "name": "callerConfirmation",
          "type": "address"
        }
      ],
      "name": "renounceRole",
      "outputs": [],
      "stateMutability": "nonpayable",
      "type": "function"
    },
    {
      "inputs": [
        {
          "internalType": "bytes32",
          "name": "role",
          "type": "bytes32"
        },
        {
          "internalType": "address",
          "name": "account",
          "type": "address"
        }
      ],
      "name": "revokeRole",
      "outputs": [],
      "stateMutability": "nonpayable",
      "type": "function"
    },
    {
      "inputs": [
        {
          "internalType": "string",
          "name": "title",
          "type": "string"
        },
        {
          "internalType": "string",
          "name": "content",
          "type": "string"
        }
      ],
      "name": "submitArticle",
      "outputs": [],
      "stateMutability": "nonpayable",
      "type": "function"
    },
    {
      "inputs": [
        {
          "internalType": "bytes4",
          "name": "interfaceId",
          "type": "bytes4"
        }
      ],
      "name": "supportsInterface",
      "outputs": [
        {
          "internalType": "bool",
          "name": "",
          "type": "bool"
        }
      ],
      "stateMutability": "view",
      "type": "function"
    },
    {
      "inputs": [
        {
          "internalType": "uint256",
          "name": "articleId",
          "type": "uint256"
        },
        {
          "internalType": "string",
          "name": "newTitle",
          "type": "string"
        },
        {
          "internalType": "string",
          "name": "newContent",
          "type": "string"
        }
      ],
      "name": "updateArticle",
      "outputs": [],
      "stateMutability": "nonpayable",
      "type": "function"
    }
  ],
  "bytecode": "0x60806040523480156200001157600080fd5b50620000276000801b336200006160201b60201c565b506200005a7f0ac90c257048ef1c3e387c26d4a99bde06894efbcbff862dc1885c3a9319308a336200006160201b60201c565b50620001d6565b60006200007583836200016460201b60201c565b6200015957600160008085815260200190815260200160002060000160008473ffffffffffffffffffffffffffffffffffffffff1673ffffffffffffffffffffffffffffffffffffffff16815260200190815260200160002060006101000a81548160ff021916908315150217905550620000f5620001ce60201b60201c565b73ffffffffffffffffffffffffffffffffffffffff168273ffffffffffffffffffffffffffffffffffffffff16847f2f8788117e7eff1d82e926ec794901d17c78024a50270940304540a733656f0d60405160405180910390a4600190506200015e565b600090505b92915050565b600080600084815260200190815260200160002060000160008373ffffffffffffffffffffffffffffffffffffffff1673ffffffffffffffffffffffffffffffffffffffff16815260200190815260200160002060009054906101000a900460ff16905092915050565b600033905090565b61363c80620001e66000396000f3fe608060405234801561001057600080fd5b50600436106101425760003560e01c806391d14854116100b8578063c634b78e1161007c578063c634b78e146103d8578063d547741f146103f4578063d8f4b6fd14610410578063d98fabc11461042e578063edcfafe61461045e578063ffcd40f31461049257610142565b806391d14854146102fa5780639201de551461032a578063a217fddf1461035a578063abb7ae5d14610378578063bd85d867146103a857610142565b80633336acd31161010a5780633336acd31461021257806336568abe1461022e5780634bab5a461461024a57806351e59ffb1461027e57806373e4312d146102ae57806388670412146102de57610142565b806301ffc9a7146101475780630a4d85cd14610177578063248a9ca3146101aa57806325671a2f146101da5780632f2ff15d146101f6575b600080fd5b610161600480360381019061015c91906122d8565b6104c2565b60405161016e9190612320565b60405180910390f35b610191600480360381019061018c9190612399565b61053c565b6040516101a19493929190612407565b60405180910390f35b6101c460048036038101906101bf9190612482565b610599565b6040516101d191906124be565b60405180910390f35b6101f460048036038101906101ef919061261f565b6105b8565b005b610210600480360381019061020b9190612697565b610a14565b005b61022c60048036038101906102279190612399565b610a36565b005b61024860048036038101906102439190612697565b610c37565b005b610264600480360381019061025f9190612703565b610cb2565b6040516102759594939291906127af565b60405180910390f35b61029860048036038101906102939190612399565b610ea0565b6040516102a59190612817565b60405180910390f35b6102c860048036038101906102c39190612399565b610ede565b6040516102d591906129e0565b60405180910390f35b6102f860048036038101906102f39190612a02565b61135d565b005b610314600480360381019061030f9190612697565b61170f565b6040516103219190612320565b60405180910390f35b610344600480360381019061033f9190612482565b611779565b6040516103519190612a8d565b60405180910390f35b6103626117a2565b60405161036f91906124be565b60405180910390f35b610392600480360381019061038d9190612703565b6117a9565b60405161039f9190612aaf565b60405180910390f35b6103c260048036038101906103bd9190612703565b6117c1565b6040516103cf9190612b4e565b60405180910390f35b6103f260048036038101906103ed9190612399565b611a5d565b005b61040e60048036038101906104099190612697565b611a7b565b005b610418611a9d565b60405161042591906124be565b60405180910390f35b61044860048036038101906104439190612b70565b611ac1565b6040516104559190612aaf565b60405180910390f35b61047860048036038101906104739190612703565b611af2565b6040516104899594939291906127af565b60405180910390f35b6104ac60048036038101906104a79190612703565b611ce0565b6040516104b99190612cd5565b60405180910390f35b60007f7965db0b000000000000000000000000000000000000000000000000000000007bffffffffffffffffffffffffffffffffffffffffffffffffffffffff1916827bffffffffffffffffffffffffffffffffffffffffffffffffffffffff19161480610535575061053482611f2f565b5b9050919050565b60036020528060005260406000206000915090508060000160009054906101000a900473ffffffffffffffffffffffffffffffffffffffff16908060010154908060020154908060030160009054906101000a900460ff16905084565b6000806000838152602001908152602001600020600101549050919050565b6105e27f0ac90c257048ef1c3e387c26d4a99bde06894efbcbff862dc1885c3a9319308a3361170f565b610621576040517f08c379a000000000000000000000000000000000000000000000000000000000815260040161061890612d43565b60405180910390fd5b6000825111610665576040517f08c379a000000000000000000000000000000000000000000000000000000000815260040161065c90612daf565b60405180910390fd5b60008151116106a9576040517f08c379a00000000000000000000000000000000000000000000000000000000081526004016106a090612e1b565b60405180910390fd5b600660008154809291906106bc90612e6a565b919050555060006006549050600083836040516020016106dd929190612eee565b60405160208183030381529060405280519060200120905083600160008481526020019081526020016000206000019081610718919061311e565b508260016000848152602001908152602001600020600101908161073c919061311e565b50426001600084815260200190815260200160002060020181905550336001600084815260200190815260200160002060030160006101000a81548173ffffffffffffffffffffffffffffffffffffffff021916908373ffffffffffffffffffffffffffffffffffffffff1602179055506107b681611779565b6001600084815260200190815260200160002060040190816107d8919061311e565b5060006001905060405180608001604052808281526020016107f984611779565b81526020013373ffffffffffffffffffffffffffffffffffffffff16815260200142815250600160008581526020019081526020016000206005016000838152602001908152602001600020600082015181600001556020820151816001019081610864919061311e565b5060408201518160020160006101000a81548173ffffffffffffffffffffffffffffffffffffffff021916908373ffffffffffffffffffffffffffffffffffffffff16021790555060608201518160030155905050600460003373ffffffffffffffffffffffffffffffffffffffff1673ffffffffffffffffffffffffffffffffffffffff1681526020019081526020016000208390806001815401808255809150506001900390600052602060002001600090919091909150556040518060a001604052808681526020018581526020014281526020013373ffffffffffffffffffffffffffffffffffffffff16815260200161096184611779565b81525060026000858152602001908152602001600020600082015181600001908161098c919061311e565b5060208201518160010190816109a2919061311e565b506040820151816002015560608201518160030160006101000a81548173ffffffffffffffffffffffffffffffffffffffff021916908373ffffffffffffffffffffffffffffffffffffffff1602179055506080820151816004019081610a09919061311e565b509050505050505050565b610a1d82610599565b610a2681611f99565b610a308383611fad565b50505050565b610a436000801b3361170f565b610a82576040517f08c379a0000000000000000000000000000000000000000000000000000000008152600401610a799061323c565b60405180910390fd5b600360008273ffffffffffffffffffffffffffffffffffffffff1673ffffffffffffffffffffffffffffffffffffffff16815260200190815260200160002060030160009054906101000a900460ff1615610b12576040517f08c379a0000000000000000000000000000000000000000000000000000000008152600401610b09906132a8565b60405180910390fd5b60405180608001604052808273ffffffffffffffffffffffffffffffffffffffff1681526020014281526020016000815260200160011515815250600360008373ffffffffffffffffffffffffffffffffffffffff1673ffffffffffffffffffffffffffffffffffffffff16815260200190815260200160002060008201518160000160006101000a81548173ffffffffffffffffffffffffffffffffffffffff021916908373ffffffffffffffffffffffffffffffffffffffff160217905550602082015181600101556040820151816002015560608201518160030160006101000a81548160ff021916908315150217905550905050610c347f0ac90c257048ef1c3e387c26d4a99bde06894efbcbff862dc1885c3a9319308a82610a14565b50565b610c3f61209e565b73ffffffffffffffffffffffffffffffffffffffff168173ffffffffffffffffffffffffffffffffffffffff1614610ca3576040517f6697b23200000000000000000000000000000000000000000000000000000000815260040160405180910390fd5b610cad82826120a6565b505050565b6002602052806000526040600020600091509050806000018054610cd590612f41565b80601f0160208091040260200160405190810160405280929190818152602001828054610d0190612f41565b8015610d4e5780601f10610d2357610100808354040283529160200191610d4e565b820191906000526020600020905b815481529060010190602001808311610d3157829003601f168201915b505050505090806001018054610d6390612f41565b80601f0160208091040260200160405190810160405280929190818152602001828054610d8f90612f41565b8015610ddc5780601f10610db157610100808354040283529160200191610ddc565b820191906000526020600020905b815481529060010190602001808311610dbf57829003601f168201915b5050505050908060020154908060030160009054906101000a900473ffffffffffffffffffffffffffffffffffffffff1690806004018054610e1d90612f41565b80601f0160208091040260200160405190810160405280929190818152602001828054610e4990612f41565b8015610e965780601f10610e6b57610100808354040283529160200191610e96565b820191906000526020600020905b815481529060010190602001808311610e7957829003601f168201915b5050505050905085565b60056020528060005260406000206000915090508060000160009054906101000a900473ffffffffffffffffffffffffffffffffffffffff16905081565b6060600360008373ffffffffffffffffffffffffffffffffffffffff1673ffffffffffffffffffffffffffffffffffffffff16815260200190815260200160002060030160009054906101000a900460ff16610f6f576040517f08c379a0000000000000000000000000000000000000000000000000000000008152600401610f6690613314565b60405180910390fd5b6000600460008473ffffffffffffffffffffffffffffffffffffffff1673ffffffffffffffffffffffffffffffffffffffff168152602001908152602001600020805480602002602001604051908101604052809291908181526020018280548015610ffa57602002820191906000526020600020905b815481526020019060010190808311610fe6575b505050505090506000815167ffffffffffffffff81111561101e5761101d6124f4565b5b60405190808252806020026020018201604052801561105757816020015b6110446121e9565b81526020019060019003908161103c5790505b50905060005b82518110156113525760006001600085848151811061107f5761107e613334565b5b6020026020010151815260200190815260200160002060020154036110d9576040517f08c379a00000000000000000000000000000000000000000000000000000000081526004016110d0906133af565b60405180910390fd5b600260008483815181106110f0576110ef613334565b5b602002602001015181526020019081526020016000206040518060a001604052908160008201805461112190612f41565b80601f016020809104026020016040519081016040528092919081815260200182805461114d90612f41565b801561119a5780601f1061116f5761010080835404028352916020019161119a565b820191906000526020600020905b81548152906001019060200180831161117d57829003601f168201915b505050505081526020016001820180546111b390612f41565b80601f01602080910402602001604051908101604052809291908181526020018280546111df90612f41565b801561122c5780601f106112015761010080835404028352916020019161122c565b820191906000526020600020905b81548152906001019060200180831161120f57829003601f168201915b50505050508152602001600282015481526020016003820160009054906101000a900473ffffffffffffffffffffffffffffffffffffffff1673ffffffffffffffffffffffffffffffffffffffff1673ffffffffffffffffffffffffffffffffffffffff1681526020016004820180546112a590612f41565b80601f01602080910402602001604051908101604052809291908181526020018280546112d190612f41565b801561131e5780601f106112f35761010080835404028352916020019161131e565b820191906000526020600020905b81548152906001019060200180831161130157829003601f168201915b50505050508152505082828151811061133a57611339613334565b5b6020026020010181905250808060010191505061105d565b508092505050919050565b6113877f0ac90c257048ef1c3e387c26d4a99bde06894efbcbff862dc1885c3a9319308a3361170f565b6113c6576040517f08c379a00000000000000000000000000000000000000000000000000000000081526004016113bd90612d43565b60405180910390fd5b60006001600085815260200190815260200160002060030160009054906101000a900473ffffffffffffffffffffffffffffffffffffffff169050600060016000868152602001908152602001600020600201540361145a576040517f08c379a0000000000000000000000000000000000000000000000000000000008152600401611451906133af565b60405180910390fd5b8073ffffffffffffffffffffffffffffffffffffffff163373ffffffffffffffffffffffffffffffffffffffff16146114c8576040517f08c379a00000000000000000000000000000000000000000000000000000000081526004016114bf90613441565b60405180910390fd5b600083511161150c576040517f08c379a0000000000000000000000000000000000000000000000000000000008152600401611503906134ad565b60405180910390fd5b6000825111611550576040517f08c379a000000000000000000000000000000000000000000000000000000000815260040161154790613519565b60405180910390fd5b60008383604051602001611565929190612eee565b604051602081830303815290604052805190602001209050836001600087815260200190815260200160002060000190816115a0919061311e565b50826001600087815260200190815260200160002060010190816115c4919061311e565b506115ce81611779565b6001600087815260200190815260200160002060040190816115f0919061311e565b506000600160076000888152602001908152602001600020546116139190613539565b9050604051806080016040528082815260200161162f84611779565b81526020013373ffffffffffffffffffffffffffffffffffffffff1681526020014281525060016000888152602001908152602001600020600501600083815260200190815260200160002060008201518160000155602082015181600101908161169a919061311e565b5060408201518160020160006101000a81548173ffffffffffffffffffffffffffffffffffffffff021916908373ffffffffffffffffffffffffffffffffffffffff16021790555060608201518160030155905050806007600088815260200190815260200160002081905550505050505050565b600080600084815260200190815260200160002060000160008373ffffffffffffffffffffffffffffffffffffffff1673ffffffffffffffffffffffffffffffffffffffff16815260200190815260200160002060009054906101000a900460ff16905092915050565b60608160405160200161178c919061358e565b6040516020818303038152906040529050919050565b6000801b81565b60076020528060005260406000206000915090505481565b6117c96121e9565b6000600260008481526020019081526020016000206002015403611822576040517f08c379a0000000000000000000000000000000000000000000000000000000008152600401611819906133af565b60405180910390fd5b600260008381526020019081526020016000206040518060a001604052908160008201805461185090612f41565b80601f016020809104026020016040519081016040528092919081815260200182805461187c90612f41565b80156118c95780601f1061189e576101008083540402835291602001916118c9565b820191906000526020600020905b8154815290600101906020018083116118ac57829003601f168201915b505050505081526020016001820180546118e290612f41565b80601f016020809104026020016040519081016040528092919081815260200182805461190e90612f41565b801561195b5780601f106119305761010080835404028352916020019161195b565b820191906000526020600020905b81548152906001019060200180831161193e57829003601f168201915b50505050508152602001600282015481526020016003820160009054906101000a900473ffffffffffffffffffffffffffffffffffffffff1673ffffffffffffffffffffffffffffffffffffffff1673ffffffffffffffffffffffffffffffffffffffff1681526020016004820180546119d490612f41565b80601f0160208091040260200160405190810160405280929190818152602001828054611a0090612f41565b8015611a4d5780601f10611a2257610100808354040283529160200191611a4d565b820191906000526020600020905b815481529060010190602001808311611a3057829003601f168201915b5050505050815250509050919050565b6000801b611a6a81611f99565b611a776000801b83610a14565b5050565b611a8482610599565b611a8d81611f99565b611a9783836120a6565b50505050565b7f0ac90c257048ef1c3e387c26d4a99bde06894efbcbff862dc1885c3a9319308a81565b60046020528160005260406000208181548110611add57600080fd5b90600052602060002001600091509150505481565b6001602052806000526040600020600091509050806000018054611b1590612f41565b80601f0160208091040260200160405190810160405280929190818152602001828054611b4190612f41565b8015611b8e5780601f10611b6357610100808354040283529160200191611b8e565b820191906000526020600020905b815481529060010190602001808311611b7157829003601f168201915b505050505090806001018054611ba390612f41565b80601f0160208091040260200160405190810160405280929190818152602001828054611bcf90612f41565b8015611c1c5780601f10611bf157610100808354040283529160200191611c1c565b820191906000526020600020905b815481529060010190602001808311611bff57829003601f168201915b5050505050908060020154908060030160009054906101000a900473ffffffffffffffffffffffffffffffffffffffff1690806004018054611c5d90612f41565b80601f0160208091040260200160405190810160405280929190818152602001828054611c8990612f41565b8015611cd65780601f10611cab57610100808354040283529160200191611cd6565b820191906000526020600020905b815481529060010190602001808311611cb957829003601f168201915b5050505050905085565b60606000600160008481526020019081526020016000206002015403611d3b576040517f08c379a0000000000000000000000000000000000000000000000000000000008152600401611d32906133af565b60405180910390fd5b60006007600084815260200190815260200160002054905060008167ffffffffffffffff811115611d6f57611d6e6124f4565b5b604051908082528060200260200182016040528015611da857816020015b611d9561222e565b815260200190600190039081611d8d5790505b5090506000600190505b828111611f245760016000868152602001908152602001600020600501600082815260200190815260200160002060405180608001604052908160008201548152602001600182018054611e0590612f41565b80601f0160208091040260200160405190810160405280929190818152602001828054611e3190612f41565b8015611e7e5780601f10611e5357610100808354040283529160200191611e7e565b820191906000526020600020905b815481529060010190602001808311611e6157829003601f168201915b505050505081526020016002820160009054906101000a900473ffffffffffffffffffffffffffffffffffffffff1673ffffffffffffffffffffffffffffffffffffffff1673ffffffffffffffffffffffffffffffffffffffff16815260200160038201548152505082600183611ef591906135a9565b81518110611f0657611f05613334565b5b60200260200101819052508080611f1c90612e6a565b915050611db2565b508092505050919050565b60007f01ffc9a7000000000000000000000000000000000000000000000000000000007bffffffffffffffffffffffffffffffffffffffffffffffffffffffff1916827bffffffffffffffffffffffffffffffffffffffffffffffffffffffff1916149050919050565b611faa81611fa561209e565b612198565b50565b6000611fb9838361170f565b61209357600160008085815260200190815260200160002060000160008473ffffffffffffffffffffffffffffffffffffffff1673ffffffffffffffffffffffffffffffffffffffff16815260200190815260200160002060006101000a81548160ff02191690831515021790555061203061209e565b73ffffffffffffffffffffffffffffffffffffffff168273ffffffffffffffffffffffffffffffffffffffff16847f2f8788117e7eff1d82e926ec794901d17c78024a50270940304540a733656f0d60405160405180910390a460019050612098565b600090505b92915050565b600033905090565b60006120b2838361170f565b1561218d57600080600085815260200190815260200160002060000160008473ffffffffffffffffffffffffffffffffffffffff1673ffffffffffffffffffffffffffffffffffffffff16815260200190815260200160002060006101000a81548160ff02191690831515021790555061212a61209e565b73ffffffffffffffffffffffffffffffffffffffff168273ffffffffffffffffffffffffffffffffffffffff16847ff6391f5c32d9c69d2a47ea670b442974b53935d1edc7fd64eb21e047a839171b60405160405180910390a460019050612192565b600090505b92915050565b6121a2828261170f565b6121e55780826040517fe2517d3f0000000000000000000000000000000000000000000000000000000081526004016121dc9291906135dd565b60405180910390fd5b5050565b6040518060a00160405280606081526020016060815260200160008152602001600073ffffffffffffffffffffffffffffffffffffffff168152602001606081525090565b60405180608001604052806000815260200160608152602001600073ffffffffffffffffffffffffffffffffffffffff168152602001600081525090565b6000604051905090565b600080fd5b600080fd5b60007fffffffff0000000000000000000000000000000000000000000000000000000082169050919050565b6122b581612280565b81146122c057600080fd5b50565b6000813590506122d2816122ac565b92915050565b6000602082840312156122ee576122ed612276565b5b60006122fc848285016122c3565b91505092915050565b60008115159050919050565b61231a81612305565b82525050565b60006020820190506123356000830184612311565b92915050565b600073ffffffffffffffffffffffffffffffffffffffff82169050919050565b60006123668261233b565b9050919050565b6123768161235b565b811461238157600080fd5b50565b6000813590506123938161236d565b92915050565b6000602082840312156123af576123ae612276565b5b60006123bd84828501612384565b91505092915050565b6123cf8161235b565b82525050565b6000819050919050565b6123e8816123d5565b82525050565b6000819050919050565b612401816123ee565b82525050565b600060808201905061241c60008301876123c6565b61242960208301866123df565b61243660408301856123f8565b6124436060830184612311565b95945050505050565b6000819050919050565b61245f8161244c565b811461246a57600080fd5b50565b60008135905061247c81612456565b92915050565b60006020828403121561249857612497612276565b5b60006124a68482850161246d565b91505092915050565b6124b88161244c565b82525050565b60006020820190506124d360008301846124af565b92915050565b600080fd5b600080fd5b6000601f19601f8301169050919050565b7f4e487b7100000000000000000000000000000000000000000000000000000000600052604160045260246000fd5b61252c826124e3565b810181811067ffffffffffffffff8211171561254b5761254a6124f4565b5b80604052505050565b600061255e61226c565b905061256a8282612523565b919050565b600067ffffffffffffffff82111561258a576125896124f4565b5b612593826124e3565b9050602081019050919050565b82818337600083830152505050565b60006125c26125bd8461256f565b612554565b9050828152602081018484840111156125de576125dd6124de565b5b6125e98482856125a0565b509392505050565b600082601f830112612606576126056124d9565b5b81356126168482602086016125af565b91505092915050565b6000806040838503121561263657612635612276565b5b600083013567ffffffffffffffff8111156126545761265361227b565b5b612660858286016125f1565b925050602083013567ffffffffffffffff8111156126815761268061227b565b5b61268d858286016125f1565b9150509250929050565b600080604083850312156126ae576126ad612276565b5b60006126bc8582860161246d565b92505060206126cd85828601612384565b9150509250929050565b6126e0816123d5565b81146126eb57600080fd5b50565b6000813590506126fd816126d7565b92915050565b60006020828403121561271957612718612276565b5b6000612727848285016126ee565b91505092915050565b600081519050919050565b600082825260208201905092915050565b60005b8381101561276a57808201518184015260208101905061274f565b60008484015250505050565b600061278182612730565b61278b818561273b565b935061279b81856020860161274c565b6127a4816124e3565b840191505092915050565b600060a08201905081810360008301526127c98188612776565b905081810360208301526127dd8187612776565b90506127ec60408301866123df565b6127f960608301856123c6565b818103608083015261280b8184612776565b90509695505050505050565b600060208201905061282c60008301846123c6565b92915050565b600081519050919050565b600082825260208201905092915050565b6000819050602082019050919050565b600082825260208201905092915050565b600061287a82612730565b612884818561285e565b935061289481856020860161274c565b61289d816124e3565b840191505092915050565b6128b1816123d5565b82525050565b6128c08161235b565b82525050565b600060a08301600083015184820360008601526128e3828261286f565b915050602083015184820360208601526128fd828261286f565b915050604083015161291260408601826128a8565b50606083015161292560608601826128b7565b506080830151848203608086015261293d828261286f565b9150508091505092915050565b600061295683836128c6565b905092915050565b6000602082019050919050565b600061297682612832565b612980818561283d565b9350836020820285016129928561284e565b8060005b858110156129ce57848403895281516129af858261294a565b94506129ba8361295e565b925060208a01995050600181019050612996565b50829750879550505050505092915050565b600060208201905081810360008301526129fa818461296b565b905092915050565b600080600060608486031215612a1b57612a1a612276565b5b6000612a29868287016126ee565b935050602084013567ffffffffffffffff811115612a4a57612a4961227b565b5b612a56868287016125f1565b925050604084013567ffffffffffffffff811115612a7757612a7661227b565b5b612a83868287016125f1565b9150509250925092565b60006020820190508181036000830152612aa78184612776565b905092915050565b6000602082019050612ac460008301846123df565b92915050565b600060a0830160008301518482036000860152612ae7828261286f565b91505060208301518482036020860152612b01828261286f565b9150506040830151612b1660408601826128a8565b506060830151612b2960608601826128b7565b5060808301518482036080860152612b41828261286f565b9150508091505092915050565b60006020820190508181036000830152612b688184612aca565b905092915050565b60008060408385031215612b8757612b86612276565b5b6000612b9585828601612384565b9250506020612ba6858286016126ee565b9150509250929050565b600081519050919050565b600082825260208201905092915050565b6000819050602082019050919050565b6000608083016000830151612bf460008601826128a8565b5060208301518482036020860152612c0c828261286f565b9150506040830151612c2160408601826128b7565b506060830151612c3460608601826128a8565b508091505092915050565b6000612c4b8383612bdc565b905092915050565b6000602082019050919050565b6000612c6b82612bb0565b612c758185612bbb565b935083602082028501612c8785612bcc565b8060005b85811015612cc35784840389528151612ca48582612c3f565b9450612caf83612c53565b925060208a01995050600181019050612c8b565b50829750879550505050505092915050565b60006020820190508181036000830152612cef8184612c60565b905092915050565b7f43616c6c6572206973206e6f742061207075626c697368657200000000000000600082015250565b6000612d2d60198361273b565b9150612d3882612cf7565b602082019050919050565b60006020820190508181036000830152612d5c81612d20565b9050919050565b7f5469746c652063616e6e6f7420626520656d7074790000000000000000000000600082015250565b6000612d9960158361273b565b9150612da482612d63565b602082019050919050565b60006020820190508181036000830152612dc881612d8c565b9050919050565b7f436f6e74656e742063616e6e6f7420626520656d707479000000000000000000600082015250565b6000612e0560178361273b565b9150612e1082612dcf565b602082019050919050565b60006020820190508181036000830152612e3481612df8565b9050919050565b7f4e487b7100000000000000000000000000000000000000000000000000000000600052601160045260246000fd5b6000612e75826123d5565b91507fffffffffffffffffffffffffffffffffffffffffffffffffffffffffffffffff8203612ea757612ea6612e3b565b5b600182019050919050565b600081905092915050565b6000612ec882612730565b612ed28185612eb2565b9350612ee281856020860161274c565b80840191505092915050565b6000612efa8285612ebd565b9150612f068284612ebd565b91508190509392505050565b7f4e487b7100000000000000000000000000000000000000000000000000000000600052602260045260246000fd5b60006002820490506001821680612f5957607f821691505b602082108103612f6c57612f6b612f12565b5b50919050565b60008190508160005260206000209050919050565b60006020601f8301049050919050565b600082821b905092915050565b600060088302612fd47fffffffffffffffffffffffffffffffffffffffffffffffffffffffffffffffff82612f97565b612fde8683612f97565b95508019841693508086168417925050509392505050565b6000819050919050565b600061301b613016613011846123d5565b612ff6565b6123d5565b9050919050565b6000819050919050565b61303583613000565b61304961304182613022565b848454612fa4565b825550505050565b600090565b61305e613051565b61306981848461302c565b505050565b5b8181101561308d57613082600082613056565b60018101905061306f565b5050565b601f8211156130d2576130a381612f72565b6130ac84612f87565b810160208510156130bb578190505b6130cf6130c785612f87565b83018261306e565b50505b505050565b600082821c905092915050565b60006130f5600019846008026130d7565b1980831691505092915050565b600061310e83836130e4565b9150826002028217905092915050565b61312782612730565b67ffffffffffffffff8111156131405761313f6124f4565b5b61314a8254612f41565b613155828285613091565b600060209050601f8311600181146131885760008415613176578287015190505b6131808582613102565b8655506131e8565b601f19841661319686612f72565b60005b828110156131be57848901518255600182019150602085019450602081019050613199565b868310156131db57848901516131d7601f8916826130e4565b8355505b6001600288020188555050505b505050505050565b7f43616c6c6572206973206e6f7420616e2061646d696e00000000000000000000600082015250565b600061322660168361273b565b9150613231826131f0565b602082019050919050565b6000602082019050818103600083015261325581613219565b9050919050565b7f5075626c697368657220616c7265616479207265676973746572656400000000600082015250565b6000613292601c8361273b565b915061329d8261325c565b602082019050919050565b600060208201905081810360008301526132c181613285565b9050919050565b7f5075626c6973686572206e6f7420726567697374657265640000000000000000600082015250565b60006132fe60188361273b565b9150613309826132c8565b602082019050919050565b6000602082019050818103600083015261332d816132f1565b9050919050565b7f4e487b7100000000000000000000000000000000000000000000000000000000600052603260045260246000fd5b7f41727469636c6520646f6573206e6f7420657869737400000000000000000000600082015250565b600061339960168361273b565b91506133a482613363565b602082019050919050565b600060208201905081810360008301526133c88161338c565b9050919050565b7f4f6e6c7920746865206f726967696e616c207075626c69736865722063616e2060008201527f7570646174652e00000000000000000000000000000000000000000000000000602082015250565b600061342b60278361273b565b9150613436826133cf565b604082019050919050565b6000602082019050818103600083015261345a8161341e565b9050919050565b7f4e6577207469746c652063616e6e6f7420626520656d70747900000000000000600082015250565b600061349760198361273b565b91506134a282613461565b602082019050919050565b600060208201905081810360008301526134c68161348a565b9050919050565b7f4e657720636f6e74656e742063616e6e6f7420626520656d7074790000000000600082015250565b6000613503601b8361273b565b915061350e826134cd565b602082019050919050565b60006020820190508181036000830152613532816134f6565b9050919050565b6000613544826123d5565b915061354f836123d5565b925082820190508082111561356757613566612e3b565b5b92915050565b6000819050919050565b6135886135838261244c565b61356d565b82525050565b600061359a8284613577565b60208201915081905092915050565b60006135b4826123d5565b91506135bf836123d5565b92508282039050818111156135d7576135d6612e3b565b5b92915050565b60006040820190506135f260008301856123c6565b6135ff60208301846124af565b939250505056fea2646970667358221220190453f22445a31ea3c0c476608ad09b6173b31d096dcf048c6ed03c240c498264736f6c63430008180033",
  "linkReferences": {},
  "deployedLinkReferences": {}
}